:100000000C94A3070C94EA070C94EA070C94EA07F3
:100010000C94EA070C94EA070C94EA070C94EA079C
:100020000C94EA070C94EA070C945F2B0C94312C87
:100030000C948C1E0C94EA070C94EA070C94EA07C3
:100040000C94EA070C94EA070C94EA070C94EA076C
:100050000C94EA070C94001F0C94EA070C94EA072E
:100060000C94EA070C94EA070C94EA070C94EA074C
:100070000C94EA070C94EA070C94EA070C94EA073C
:100080000C94EA070C94EA070C94EA070C94EA072C
:100090000C94EA070C94EA070C94EA070C94EA071C
:1000A0000C94EA070C94EA070C94EA07DF08E408CA
:1000B000E908EE08F308F808FD08020909095B0AD7
:1000C0005D0A680A5F0A610A630A650A670A6A0AC2
:1000D0006C0A6E0A790A700A720A740A760A780A39
:1000E0007B0ABF13BF13F113F11329144914B91577
:1000F000B9158B14B91538153815A915B915B915D1
:10010000B2154515451545154515451545154515B2
:10011000451545154515451545154515451545150F
:100120004515561564156B1572157C154416441645
:10013000561656164D16561656165616441644168C
:1001400052165616561652169E2CC52CB72DC52C77
:10015000B72D112D342DB72D8A2D992D73656C6512
:100160006374202A00245F003D3E003C3D003E3D7C
:1001700000213D003D3D006174726575732F72650D
:10018000706C6963614A756E6374696F6E2040209C
:10019000302E362E3135302D362D67636231653481
:1001A000352D6469727479006D616B6520617472BC
:1001B0006575733A7265706C6963614A756E6374D4
:1001C000696F6E3A617672647564650014001A0096
:1001D00009001300050000000D000F0018001C00AE
:1001E000330004001543164417000A0000001000F5
:1001F000110008450C4612001D001B0006000700F8
:1002000019004C610E000B00360037003800005713
:10021000E3002B00E1002A4128642C42E5002D0078
:1002200034002E001E021F022F0230023800000090
:100230003302240025002600380020022102260275
:1002400027023102000020022100220023002502A3
:10025000220223022F003000310001002A001E007C
:100260001F0020002D00010024023502350001008E
:1002700028000100270037002E002E020100010097
:1002800065003501190D00004B004A0052004D0079
:100290004C00E300E100E200E000010000004E003D
:1002A000500051004F002A00010001000100160D0E
:1002B000130D4C0001002B022B002B0849000100FC
:1002C00001000100010001002800010001000100FF
:1002D00001004600010001000100010001000000D2
:1002E00033022400250026005400010001002402EE
:1002F00031020100000020022100220023005500ED
:100300000100010001000100010001002A001E009F
:100310001F00200056000100010001000100010043
:1003200001000100270037002E002E02010001000D
:100330000100010001000000A90042004300440048
:100340004500010001000100010001000000A800BB
:100350003E003F004000410001000100010001009B
:100360000100E000AA003A003B003C003D00010013
:100370000100010001000100E20001000100010094
:100380000100010001000100E55CE45C01000000E7
:100390000100010001000100DE5CE05CDF5CE25C6A
:1003A000E15CE35C00000100010001000100DD5C94
:1003B0000100010001000100010001000100010035
:1003C0000100010001000100010001000100010025
:1003D0000100010001000100010001001E021F02D6
:1003E0002F0230023800000001002D02350001000C
:1003F0000100200221022602270231020000010032
:100400002D00340001000100220223022F003000E1
:100410003100010001003502340201000100010039
:100420002402360237020100010001000100010030
:100430000100010044454255473A20656E61626CF7
:1004400065642E0A0000000000000000002A2B282E
:10045000000000000000000000000000000000009C
:1004600029000000002C1E342021222434262725B8
:100470002E362D3738271E1F2021222324252633F0
:1004800033362E37381F0405060708090A0B0C0DF2
:100490000E0F101112131415161718191A1B1C1D04
:1004A0002F3130232D350405060708090A0B0C0DE2
:1004B0000E0F101112131415161718191A1B1C1DE4
:1004C0002F3130354C00000000000000000000001B
:1004D000000000000000000000000000000000001C
:1004E0000000000000000101010101010001010103
:1004F00001000000000000000000000000000001FA
:1005000000010001010101010101010101010101DD
:1005100001010101010101010101010101010101CB
:1005200000000001010000000000000000000000C9
:1005300000000000000000000000000000000000BB
:1005400001010101000A002530313662003A200025
:1005500025303258000A722F63203031323334355F
:10056000363738394142434445460A000A002530AF
:10057000325820006B6579626F6172645F726570DA
:100580006F72743A20000A0025303258006B65798A
:10059000626F6172645F7365745F6C65643A2000BA
:1005A00064656C5F6B65795F6269743A2063616E44
:1005B00027742064656C3A20253032580A00616443
:1005C000645F6B65795F6269743A2063616E27745A
:1005D000206164643A20253032580A00290A002537
:1005E00075002F002575005D28002564002000257A
:1005F0006400200025640020002564007C00253074
:100600003258006D6F7573656B6579205B62746E2F
:100610007C782079207620685D287265702F616370
:100620006C293A205B006D6B5F776865656C5F7461
:10063000696D655F746F5F6D6178203D2025640A88
:10064000006D6B5F776865656C5F6D61785F737077
:10065000656564203D2025640A006D6B5F74696DDB
:10066000655F746F5F6D6178203D2025640A006DC1
:100670006B5F6D61785F7370656564203D202564F4
:100680000A006D6B5F696E74657276616C203D2047
:1006900025640A006D6B5F64656C6179203D2025DF
:1006A000640A006D6B5F776865656C5F74696D6582
:1006B0005F746F5F6D6178203D2025640A006D6B6B
:1006C0005F776865656C5F6D61785F7370656564A1
:1006D000203D2025640A006D6B5F74696D655F7451
:1006E0006F5F6D6178203D2025640A006D6B5F6D42
:1006F00061785F7370656564203D2025640A006D34
:100700006B5F696E74657276616C203D2025640AAA
:10071000006D6B5F64656C6179203D2025640A0083
:100720000A00257500363A20776865656C5F746944
:100730006D655F746F5F6D61783A20000A00257502
:1007400000353A20776865656C5F6D61785F73701E
:100750006565643A20000A00257500343A20746902
:100760006D655F746F5F6D61783A20000A002575D2
:1007700000333A206D61785F73706565643A2000DC
:100780000A00257500323A20696E74657276616CD4
:10079000286D73293A20000A00257500313A20643B
:1007A000656C6179282A31306D73293A20000A0975
:1007B0002D2056616C756573202D0A004D3E004D4D
:1007C00025643E20003F0073657420646566617592
:1007D0006C740A00433E200077686572652064658A
:1007E0006C74613A20637572736F723D25642C20BE
:1007F000776865656C3D25640A5365652068747487
:10080000703A2F2F656E2E77696B69706564696128
:100810002E6F72672F77696B692F4D6F7573655FE8
:100820006B6579730A000A092D204D6F7573656B2E
:100830006579202D0A4553432F713A097175697402
:100840000A313A0964656C6179282A31306D73295F
:100850000A323A09696E74657276616C286D732983
:100860000A333A096D61785F73706565640A343ADA
:100870000974696D655F746F5F6D61780A353A0957
:10088000776865656C5F6D61785F73706565640A34
:10089000363A09776865656C5F74696D655F746F7A
:1008A0005F6D61780A0A703A097072696E74207619
:1008B000616C7565730A643A0973657420646566D2
:1008C00061756C74730A75703A092B310A646F771D
:1008D0006E3A092D310A706775703A092B31300A6A
:1008E0007067646F776E3A092D31300A0A7370654C
:1008F0006564203D2064656C7461202A206D6178F8
:100900005F7370656564202A202872657065617464
:10091000202F2074696D655F746F5F6D6178290A9F
:10092000003F004D3E2000433E20004C25640A005D
:1009300074696D65725F72656164333228293A208B
:100940002530346C580A006B65796D61705F636F98
:100950006E6669672E6E6B726F3A2025580A006BBF
:100960006579626F6172645F69646C653A202558CD
:100970000A006B6579626F6172645F70726F746F89
:10098000636F6C3A2025580A00686F73745F6B655B
:1009900079626F6172645F6C65647328293A2025FF
:1009A000580A000A092D20537461747573202D0AAA
:1009B000004743433A20342E392E32204156522DDF
:1009C0004C4942433A20312E382E3073766E204106
:1009D00056525F415243483A20617672350A004FC1
:1009E0005054494F4E533A204C554641204D4F5597
:1009F00053454B45592045585452414B4559204386
:100A00004F4E534F4C4520434F4D4D414E44204E89
:100A10004B524F20343039360A004255494C443A43
:100A20002022302E362E3135302D362D676362313F
:100A30006534352D646972747922202830323A3257
:100A4000323A3130204F6374203233203230313823
:100A5000290A005649443A20307831323039285436
:100A60006563686E6F6D616E637929205049443A01
:100A700020307841314535284174726575732920DD
:100A80005645523A203078303030380A00444553C9
:100A9000433A20712E6D2E6B2E206B6579626F614B
:100AA0007264206669726D7761726520666F72206C
:100AB0004174726575730A000A092D2056657273B8
:100AC000696F6E202D0A000A092D20436F6E736F27
:100AD0006C65202D0A4553432F713A09717569746D
:100AE0000A6D3A096D6F7573656B65790A000A09BD
:100AF0002D204D61676963202D0A443A09446562DF
:100B00007567204D65737361676520546F67676C07
:100B1000650A583A094D61747269782044656275B6
:100B200067204D6F646520546F67676C65202D20CA
:100B300053686F77206B6579707265737365732086
:100B4000696E206D617472697820677269640A4BFE
:100B50003A094B6579626F6172642044656275671A
:100B600020546F67676C65202D2053686F77206B6A
:100B700065797072657373207265706F72740A4D57
:100B80003A094465627567204D6F75736520546F2F
:100B900067676C650A563A0956657273696F6E0A23
:100BA000533A095374617475730A433A0941637483
:100BB000697661746520436F6E736F6C65204D6F4D
:100BC00064650A46312D4631303A095377697463BA
:100BD0006820746F204C6179657220302D3920288F
:100BE000463130203D204C30290A302D393A095306
:100BF000776974636820746F204C61796572203066
:100C00002D390A4553433A09537769746368207450
:100C10006F204C6179657220302028616C74657298
:100C20006E617465206B65792031290A47524156FF
:100C3000453A0953776974636820746F204C617971
:100C4000657220302028616C7465726E6174652055
:100C50006B65792032290A50415553453A094A7546
:100C60006D7020746F20426F6F746C6F6164657279
:100C700020285265736574290A4E3A094E4B524F2B
:100C800020546F67676C650A003F004E4B524F3A25
:100C9000206F66660A004E4B524F3A206F6E0A0074
:100CA0000A6D6F7573653A206F66660A000A6D6F8C
:100CB0007573653A206F6E0A000A6B6579626F6121
:100CC00072643A206F66660A000A6B6579626F612A
:100CD00072643A206F6E0A000A6D61747269783A24
:100CE000206F66660A000A6D61747269783A206F37
:100CF0006E0A000A64656275673A206F66660A00CC
:100D00000A64656275673A206F6E0A000A0A4A75BE
:100D10006D70696E6720746F20626F6F746C6F61A5
:100D20006465722E2E2E2000433E20005B735D0012
:100D30004B6579626F6172642073746172742E0AFC
:100D4000005B575D005B535D005B525D005B445D83
:100D5000005B435D000403300000000E034100749B
:100D600000720065007500730000001803540065F0
:100D700000630068006E006F006D0061006E00632C
:100D800000790000000403090409028D0005010038
:100D9000A0FA09040000010301010009211101006A
:100DA000012240000705810308000A09040100012F
:100DB00003010200092111010001224D00070582F3
:100DC0000308000A090402000103000000092111C0
:100DD0000100012236000705830308000A09040305
:100DE0000002030000000921110100012222000776
:100DF0000584032000010705040320000109040401
:100E0000000103000000092111010001223900073F
:100E100005850320000112011001000000080912DD
:100E2000E5A108000102030105010906A10105076A
:100E300019E029E7150025019508750181020508CB
:100E40001901290595057501910295017503910117
:100E50000507190029F71500250195F8750181028C
:100E6000C00631FF0974A1010975150026FF009520
:100E700020750881020976150026FF009520750867
:100E80009102C005010980A1018502160100260317
:100E9000001A81002A8300751095018100C0050C9D
:100EA0000901A1018503160100269C021A01002AEE
:100EB0009C02751095018100C005010902A101097C
:100EC00001A10005091901290515002501950575E0
:100ED0000181029501750381010501093009311570
:100EE00081257F95027508810609381581257F9532
:100EF0000175088106050C0A38021581257F9501C8
:100F000075088106C0C005010906A101050719E0A1
:100F100029E71500250195087501810295017508DD
:100F200081010508190129059505750191029501B1
:100F3000750391010507190029FF150026FF00958B
:100F40000675088100C011241FBECFEFDAE0DEBFB6
:100F5000CDBF04B603FE27C0809153029091540286
:100F6000A0915502B09156028730904BA740B04BEC
:100F7000D1F4109253021092540210925502109222
:100F8000560214BE84B7877F84BF0FB6F894A89525
:100F900080916000886180936000109260000FBEB5
:100FA000E0E0F8E3099511E0A0E0B1E0E0EDFCE558
:100FB00002C005900D92AA35B107D9F722E0AAE543
:100FC000B1E001C01D92A335B207E1F70E947A2873
:100FD0000C94662E0C940000FF93EF93E0915A015D
:100FE000F0915B01309709F00995EF91FF91089519
:100FF000FC018591803011F0EFDFFBCF0895FF27D2
:10100000E0E230E247FF0CC0419597FF09C0EDE2F6
:101010006095709580959095611D711D811D911D44
:1010200027FF02C0219530E350E2AA27660F771F01
:10103000881F991FAA1FA41710F0A41B63955A9527
:10104000A9F7AA3008F0A95FA05DAF93F3956115E9
:1010500071058105910541F7ED3211F4EF93F39598
:10106000F21718F43F93F395FBCF8F91B5DFFA9504
:10107000E1F70895E991F9918591803021F0853269
:1010800019F0AADFF9CF089520E0E8945591553280
:10109000C1F3503311F4689455915A3348F45053C6
:1010A00090F3220F022E220F220F200D250FF4CFD6
:1010B0000EF4219589919991533619F3533729F1FB
:1010C000533559F1BC0188279927E8945C3621F4FF
:1010D0008991999168945591543639F446EF7EF090
:1010E00077FF0DC08FEF9FEF0AC055374AE039F008
:1010F000583540E121F0523642E009F00895FF935F
:10110000EF937DDFEF91FF91B7CFFF93EF93FC015A
:1011100081918030B9F360DFFBCFFF93EF9368DFFD
:10112000F1CFDF93CF93CDB7DEB72596A3DFCF9175
:10113000DF910895CF93DF93EC016091DE01709110
:10114000DF018091E0019091E1010E94A11C988152
:10115000953020F0DF91CF910C948A09923059F4A8
:10116000813021F4DF91CF910C94B41A81E0DF91AA
:10117000CF910C94931A81E00E94B41A82E00E94ED
:10118000B41A89E20E94FC1189E2DF91CF910C949C
:1011900015130895089581E008950C94C9080C94DE
:1011A000CA08CF93FC01ED5DFC45E930F105B0F5CF
:1011B000DB01EA5AFF4F1296CC910C940A2EC11112
:1011C00030C088EA91E022C0C1112BC087E791E0CE
:1011D0001DC0C11126C084E791E018C0C11121C013
:1011E00081E791E013C0C1111CC08EE691E00EC0F2
:1011F000C11117C08BE691E009C0C11112C088E689
:1012000091E004C0C1110DC085E691E00E94710912
:1012100008C0C11106C08CE591E0F8CFCF910C94C5
:10122000CB088C2FCF91089581E008950C94D108BC
:10123000CF93282F30E0F901EB5BFB4FC491F9010C
:10124000EB53FB4F2491222359F081EE0E94FC11B5
:101250008C2F0E94FC118C2F0E94151381EE04C06C
:101260008C2F0E94FC118C2FCF910C9415130F938F
:101270001F93CF93DF93EC01062FFE018491882307
:1012800059F19E012F5F3F4F813041F4E901F9018F
:101290001491812F0E94FC11812F0DC0823031F4F6
:1012A000E901F90184910E94FC110AC0833031F4F4
:1012B000E901F90184910E94151302C00E941809E6
:1012C0002196802F8823C9F2EFE9FFE03197F1F7EB
:1012D00000C000008150F6CFDF91CF911F910F9198
:1012E000089560E00C9437090E94211D811106C009
:1012F0000E942C1D811102C00E94991D0C94800D2A
:101300000E94F30F0C94820D08950C9484090C94A0
:10131000850908950E9432160E9489092FEF84E3FF
:101320009CE0215080409040E1F700C0000087E73A
:1013300097E790930108809300080C94261FFF9272
:101340000F931F93CF93DF938C01FC01C081D18158
:1013500080918701811113C08281882349F0CE01D9
:101360000E948C1BF82E682FCE010E94311B04C0F6
:10137000CE010E94601BF82EBE018F2D04C0CE014D
:101380000E948C1BBE010E94230BEC01B8010E943D
:10139000550FB801CE010E941609882309F448C1EF
:1013A000B801CE010E94970F882309F441C1C631CC
:1013B000FCE5DF0739F50E945D1C282FF8018281CA
:1013C0004091150150911601882379F02A7A91E015
:1013D00009F490E090935C01911102C069E201C0B0
:1013E00065E3CA010E94191E0AC080915C01811147
:1013F00002C069E201C065E3CA010E94241E0E9486
:101400002A1C16C1C7318CE5D80708F084C0C1304A
:10141000ECE5DE0779F4F8018281882309F408C13C
:1014200080910B02816080930B0284E394E00E9420
:10143000F807FEC0C230FCE5DF0758F4C115DC45F3
:1014400061F4F8018281882309F4F2C00E948A09BC
:10145000EFC0C531ECE5DE0768F081E08093610103
:1014600080936201C801DF91CF911F910F91FF908E
:101470000C941409F80182818823A1F30E94211D94
:10148000811102C00E94991D0E943E1D90E0909320
:10149000450280934402FE01E350FC45E231F10530
:1014A00030F4E15AFF4F809144020C940A2E80914F
:1014B0004402816027C0826025C0846023C08061AF
:1014C00021C080621FC080641DC080681BC0846012
:1014D000886018C08E7F16C08D7F14C08B7F12C0AD
:1014E0008F7E10C08F7D0EC08F7B0CC08F770AC09F
:1014F0008B7F877F07C087FB222720F991E0922707
:1015000090FB87F980934402809144020E94421D1F
:101510000E9432168DC0C83DFCE5DF0759F5F80181
:101520008281882361F0109262010E94BE1E909316
:10153000600180935F0180E20E947D1379C08091F9
:101540006201882321F080E20E94841371C080919F
:101550005F01909160010E94D61E8A3F910598F725
:1015600080E20E94841388E20E94FC1188E20E94BB
:1015700015135EC0C93D8CE5D80708F044C0C63DD0
:10158000ECE5DE0719F5F8018281882351F010920D
:1015900061010E94BE1E90935E0180935D0182E016
:1015A000CBCF8091610181110FC080915D0190913D
:1015B0005E010E94D61E8A3F910530F486E20E94A9
:1015C000FC1186E20E94151382E0BECFC73DDC45C8
:1015D00009F043CFF80182818111A5CF809162018A
:1015E0008111B1CF80915F01909160010E94D61E60
:1015F0008A3F910508F0A7CF87E20E94FC1187E29D
:101600000E941513A0CFCB3D8CE5D80731F4F8012B
:101610008281882369F080E009C0CC3DDC4509F077
:101620001CCFF8018281882319F082E00E942229D0
:1016300080E0DF91CF911F910F91FF90089580E09E
:1016400090E0089508959BE0799FF00111249CE2B9
:10165000899FE00DF11D1124E60FF11DEE0FFF1F14
:10166000E453FE4F859194910895880F991FFC01D2
:10167000EB5BFA4F859194910895CF93DF930E948D
:10168000230B0E94E00CEC01811520E59207F0F598
:10169000811530E4930708F018C1883E910500F5E4
:1016A000803E910508F088C1883A910570F4853A2A
:1016B000910508F09AC08130910509F47DC108F4C4
:1016C00034C1049708F078C130C18D3B910508F40E
:1016D00097C0803C910508F428C1805C9109E7C05F
:1016E0008115904258F4C11581E0D80708F064C113
:1016F000C03FD10508F419C1D0655EC1C11590E3A2
:10170000D90708F0D8C0CE019F70D1C0811525E55A
:10171000920708F043C0811534E5930708F0ECC048
:10172000811542E5940708F5C11581E5D80708F051
:10173000CFC02C2F237081E090E002C0880F991F4A
:101740002A95E2F79C689E0174E0369527957A9574
:10175000E1F72370922BCF70C695C69530E2C39FF8
:10176000E0011124C82BD92B27C1869586959E01AF
:1017700023703327C115D34508F0AFC040E2849FE2
:10178000C0011124C1E0D0E002C0CC0FDD1F2A95BA
:10179000E2F78C2B9D2BEC01DC680EC1811529E54D
:1017A000920778F4811538E5930708F0AAC08115EF
:1017B000964508F0BAC0CF71DD27DC2FCC27D06268
:1017C000FBC0C1158AE5D80708F4A0C0CE01905629
:1017D0008115904208F0A9C08D2F8F710E945D0D78
:1017E000DD27D0628F71D82BE7C0853A910509F4C7
:1017F0009FC0863A910509F09EC0C2E8D0E4DCC0E3
:10180000883A910509F49AC0893A910509F499C07A
:101810008A3A910509F498C08B3A910509F497C06A
:101820008C3A910509F496C08B3B910509F495C05B
:101830008C3B910509F494C08D3A910509F493C04D
:10184000803B910509F492C08E3A910509F491C04C
:101850008F3A910509F490C0813B910509F48FC03E
:10186000823B910509F48EC0833B910509F48DC03C
:10187000843B910509F48CC0853B910509F48BC02C
:10188000863B910509F48AC0873B910509F489C01C
:10189000883B910509F488C0893B910509F487C00C
:1018A0008A3B910509F486C0C0E0D4E485C00E945B
:1018B000350BEC0181C0CE019927D3FF03C0EC01A9
:1018C000D86C7AC0EC01D06C77C0DF70D06A74C07D
:1018D000DC2FCC27C16FD06A6FC040E2849FC0016B
:1018E0001124C1E0D0E002C0CC0FDD1F2A95E2F741
:1018F000C82BD92BDA6860C0D82FCC27C46FD06A28
:101900005BC0D82FCC27C06FD06A56C08C2F8F7089
:10191000806E90E0906A24E0D695C7952A95E1F70D
:10192000CF709C013C2BE90147C0C0E0D0E044C02F
:10193000C1E8D0E441C0C3E8D0E43EC0C2EED4E484
:101940003BC0C9EED4E438C0CAEED4E435C0C5EB20
:10195000D4E432C0C6EBD4E42FC0C3EBD4E42CC033
:10196000C4EBD4E429C0C7EBD4E426C0CCECD4E467
:1019700023C0CDECD4E420C0C3E8D5E41DC0CAE840
:10198000D5E41AC0C2E9D5E417C0C4E9D5E414C04F
:10199000C1E2D6E411C0C3E2D6E40EC0C4E2D6E48C
:1019A0000BC0C5E2D6E408C0C6E2D6E405C0C7E273
:1019B000D6E402C0CAE2D6E4CE01DF91CF91089509
:1019C0008238910549F1B0F48133910509F458C08A
:1019D00048F48932910509F44EC08A32910509F420
:1019E00054C008958533910509F440C089339105A9
:1019F00099F00895833E910529F138F4803E9105D0
:101A000091F0823E9105A1F00895863E9105F9F08E
:101A1000873E910531F108952091440220FD3AC09E
:101A200021FD38C008958091440280FD35C032C048
:101A30008091440282FF32C08091440284FD30C014
:101A400083EE39C08091440282FD28C0F5CF809199
:101A5000440283FF27C08091440284FD21C087EEA9
:101A60002AC08091440283FD1DC0F5CF80914402BD
:101A700085FD1AC01BC08091440285FD17C014C0AB
:101A80008091440286FD14C015C08091440286FDF9
:101A900011C00EC080EE0FC089E30DC082EE0BC0F6
:101AA00080E009C086EE07C089E205C085E303C077
:101AB0008AE201C081E390E008959091440292FF90
:101AC0000DC0282F2871283019F4877F846006C044
:101AD000282F2471243011F48B7F886093FF0DC070
:101AE000282F2871283119F4877E846106C0282F99
:101AF0002471243111F48B7E886194FD877E0895D2
:101B00000C94CD080C94CF08E3E3F1E041E050E001
:101B100024E02E0F9191A92FA295AF70B0E091967D
:101B20003C9191979F70BA0102C0660F771F9A95FA
:101B3000E2F7CB018095832391968C932E13EACF05
:101B4000A8E2B1E041E050E02BE02A0F8D91E82FB0
:101B5000E295EF70F0E031A18F70BA0102C0660F1C
:101B6000771F8A95E2F7CB01962F9095932391A347
:101B700092A1892B82A32A13E9CF10926C011092B3
:101B80006B01109264011092630110926E01109229
:101B90006D01109266011092650110927001109211
:101BA0006F011092680110926701109272011092F9
:101BB000710110926A01109269010C9474094F929C
:101BC0005F927F928F929F92AF92BF92CF92DF925D
:101BD000EF92FF920F931F93CF93DF9323E3E22EB5
:101BE00021E0F22EC3E6D1E001E010E099249394C5
:101BF0006E01A880B98019821882D7018D917D016C
:101C0000E82FE295EF70F0E021A18F70A80102C0EB
:101C1000440F551F8A95E2F7CA01242B21A322A164
:101C2000842E8094282122A350EA5A95F1F798E255
:101C3000492E91E0592E20E030E0D2017D912D0116
:101C4000472F42954F7050E0DA0190967C90488182
:101C500059817F70D80102C0AA0FBB1F7A95E2F7A5
:101C6000BD01672141F4B801022E02C0660F771F43
:101C70000A94E2F702C060E070E0462B572B5983CC
:101C800048832F5F3F4F2B303105B9F691A1892250
:101C900081A292A1892B82A32296F6018081918153
:101CA000A816B90641F0909273010E94BE1E90934F
:101CB000750180937401F1E0CB36DF0709F098CF0E
:101CC00080917301882351F1809174019091750185
:101CD0000E94D61E069710F18091630190916401D5
:101CE00090936C0180936B018091650190916601E6
:101CF00090936E0180936D018091670190916801CE
:101D00009093700180936F018091690190916A01B5
:101D10009093720180937101109273010E94800967
:101D200081E0DF91CF911F910F91FF90EF90DF90B5
:101D3000CF90BF90AF909F908F907F905F904F908B
:101D40000895E82FF0E0EE0FFF1FE559FE4F808168
:101D500091810895CF92DF92EF92FF920F931F939C
:101D6000CF93DF9385E595E00E94F8078BE6E82E98
:101D700081E0F82EC0E0D0E090E5C92E95E0D92EA4
:101D800007E415E0DF93CF93DF92CF920E94910892
:101D90008DE495E00E94F807F701819191917F0110
:101DA0000E94071D9F938F931F930F930E9491088A
:101DB00085E495E00E94F80721968DB79EB70896B6
:101DC0000FB6F8949EBF0FBE8DBFC430D105D1F6BB
:101DD000DF91CF911F910F91FF90EF90DF90CF9007
:101DE0000895CF93DF93FC012785211116C0EC01E4
:101DF00081E0878787810E94601C88850E94731C10
:101E00000E942A1CEA81FB816A897B89CE010696A1
:101E1000309719F0DF91CF910994DF91CF91089518
:101E2000EF92FF920F931F93CF93DF93FC012085D6
:101E3000211134C0EC01E380F480F7E5FF1A24E1BE
:101E40002E9DC0012F9D900D1124DC01A050BF4F8D
:101E50001496ED91FC91159752966D917C91539744
:101E60008A5F9E4F309709F0099584E18E9D80012D
:101E70008F9D100D112400501F4FF80187810E9483
:101E8000661CF80180850E94791C0E942A1C188219
:101E90001F8219861092770110927601DF91CF91FF
:101EA0001F910F91FF90EF900895DF92EF92FF92B4
:101EB0000F931F93CF93DF93FB012281222379F1AC
:101EC000209114012F3F59F18C01C6E0D1E0E12CA3
:101ED000F12CDD24D39480911401082E000C990B71
:101EE0008E159F05E4F088818823A1F08B819C8169
:101EF0000817190739F48091760190917701081736
:101F0000190741F0DF82CE0106970E94F10ECE0143
:101F10000E94100FFFEFEF1AFF0A6496DCCFDF91EB
:101F2000CF911F910F91FF90EF90DF900895EF9266
:101F3000FF920F931F93CF93DF939C0137552F3F51
:101F4000310511F008F047C040911401042E000C37
:101F5000550B4217530714F420931401FB017C0125
:101F6000828194E1929F8001939F100D1124E801DA
:101F7000C050DF4F8E8792818E81992311F1FA86AE
:101F8000E9868F5F8E830E94BE1E9C878B870E948E
:101F9000991C8F830E945D1C88870E94701C988505
:101FA000892B8887E881F9816A897B89C8018A5FE2
:101FB0009E4F309709F00995F0927701E0927601F3
:101FC0000AC0882341F08F85882329F0C8018A5FE1
:101FD0009E4F0E94100F81E0DF91CF911F910F91D2
:101FE000FF90EF900895CF92DF92EF92FF920F93C0
:101FF0001F93CF93DF93809114018F3FC1F1C0E015
:10200000D4E12C2F30E080911401082E000C990BA4
:102010008217930764F1D29FF001D39FF00D112432
:10202000E050FF4FE088F188E114F10419F48AEFE1
:10203000E82EF12CD29F6001D39FD00C1124860191
:1020400000501F4FF8018681882379F0838594859D
:102050000E94D61EE816F90640F4C8010E94F10E4F
:10206000C6018A5F9E4F0E94100FCF5FCACFDF91DB
:10207000CF911F910F91FF90EF90DF90CF90089537
:1020800090937D0180937C010895E0917C01F09113
:102090007D01309721F00190F081E02D099480E0DE
:1020A0000895EF92FF920F931F93CF93DF93E091E8
:1020B0007C01F0917D013097B1F18C010280F381B8
:1020C000E02D099580910B0282FF2DC080FF04C096
:1020D00084E795E00E94F807E80110E28EE6E82E1A
:1020E00085E0F82E80910B0280FF0BC088811F9243
:1020F0008F93FF92EF920E9491080F900F900F9094
:102100000F90115021961111EDCF80910B0280FF9D
:102110000AC08CE695E0DF91CF911F910F91FF905F
:10212000EF900C94F807DF91CF911F910F91FF90E2
:10213000EF900895E0917C01F0917D01309721F0BE
:102140000480F581E02D0994089520917A01309161
:102150007B018217930771F090937B0180937A0142
:10216000E0917C01F0917D01309721F00680F781AC
:10217000E02D09940895209178013091790182171A
:10218000930771F09093790180937801E0917C013D
:10219000F0917D01309721F00084F185E02D0994C4
:1021A000089508950C94D11081E008950E94B51E01
:1021B00085B7806885BF85B7806885BF0E94840D1C
:1021C0000C94371FCF93C82F80910B0282FF1EC043
:1021D00080FF04C08DE895E00E94F80780910B0213
:1021E00080FF0CC01F92CF9388E895E09F938F9358
:1021F0000E9491080F900F900F900F9080910B020A
:1022000080FF04C086E895E00E94F8078C2FCF91EC
:102210000C9487094F925F927F928F929F92AF9218
:10222000BF92CF92DF92EF92FF920F931F93CF93C3
:10223000DF93CDB7DEB72A970FB6F894DEBF0FBE97
:10224000CDBF0E94DF0D0E94D410811111C08FEF0D
:1022500089838A831B820E94BE1E8160782F9D83A2
:102260008C8349815A816B818D810E94C81157C02E
:102270009FE7C92E91E0D92E00E010E0AA24A39494
:10228000B12C702E802F0E94A10E4C01F6014190BE
:1022900051906F01482659264114510431F40F5FC3
:1022A0001F4F0430110569F7D2CF80910B0281FDD9
:1022B0000E94AA0E20E030E07501022E02C0EE0C52
:1022C000FF1C0A94E2F7C70184219521892B09F1AB
:1022D0002E837F828E209F2091E0892809F490E050
:1022E00098870E94BE1E8160782F9A8789874E81C9
:1022F0005F8168858A850E94C811000F111FF8014F
:10230000E158FE4F80819181E826F926F182E08232
:1023100006C02F5F3F4F2B30310571F6C0CF0E94B2
:102320004C2110917E010E9445101817D9F00E948F
:10233000451080937E012A960FB6F894DEBF0FBE3B
:10234000CDBFDF91CF911F910F91FF90EF90DF9064
:10235000CF90BF90AF909F908F907F905F904F9065
:102360000C94E2102A960FB6F894DEBF0FBECDBFD4
:10237000DF91CF911F910F91FF90EF90DF90CF9061
:10238000BF90AF909F908F907F905F904F900895F7
:10239000CF93DF93CDB7DEB72B970FB6F894DEBFA0
:1023A0000FBECDBF4F83588769877A878B87DE0141
:1023B000119686E0FD0111928A95E9F785E0FE010C
:1023C000379601900D928A95E1F749815A816B8188
:1023D0007C818D819E810E9401192B960FB6F89405
:1023E000DEBF0FBECDBFDF91CF910895FC0180818C
:1023F00091810E94CB1B0895CF93DF931F92CDB79D
:10240000DEB7882309F40DC1682F8238C1F40E9419
:10241000451081FD06C169E3809115019091160177
:102420000E94191E0E942A1C2FEF81EE94E0215079
:1024300080409040E1F700C0000069E319C0833894
:1024400011F50E94451080FDECC063E580911501F7
:10245000909116010E94191E0E942A1C2FEF81EEF6
:1024600094E0215080409040E1F700C0000063E517
:1024700080911501909116010E94241E0F90DF910A
:10248000CF910C942A1C8438C1F40E94451082FD1F
:10249000C8C067E480911501909116010E94191E31
:1024A0000E942A1C2FEF81EE94E021508040904042
:1024B000E1F700C0000067E4DBCF8CEF860F813AC4
:1024C00070F4862F69830E94A02469818111A9C0BC
:1024D00080911501909116010E94191ECFCF80E2C4
:1024E000860F883048F4677081E001C0880F6A95D4
:1024F000EAF70E94601CC2CF8BE5860F833088F418
:10250000653A29F0663A31F083E890E005C081E849
:1025100090E002C082E890E00F90DF91CF910C94A0
:10252000A51088E5860F853108F071C0683A61F121
:10253000693A69F16A3A71F16B3A79F16C3A81F171
:102540006B3B89F16C3B91F16D3A99F1603BA1F1E4
:102550006E3AA9F16F3AB1F1613BB9F1623BC1F159
:10256000633BC9F1643BD1F1653BD9F1663BE1F1D5
:10257000673BE9F1683BF1F1693BF9F16A3B09F42A
:102580003FC080E090E03EC082EE90E03BC089EE2C
:1025900090E038C08AEE90E035C085EB90E032C024
:1025A00086EB90E02FC083EB90E02CC084EB90E0B2
:1025B00029C087EB90E026C08CEC90E023C08DEC26
:1025C00090E020C083E891E01DC08AE891E01AC045
:1025D00082E991E017C084E991E014C081E292E0C1
:1025E00011C083E292E00EC084E292E00BC085E26B
:1025F00092E008C086E292E005C087E292E002C065
:102600008AE292E00F90DF91CF910C94BB10603F73
:1026100040F0862F0E94D21F0F90DF91CF910C9433
:10262000BF200F90DF91CF910895882309F464C0F3
:10263000823879F40E94451081FF5EC069E3809181
:102640001501909116010E94191E0E942A1C69E32F
:1026500010C08338B1F40E94451080FF4DC063E57F
:1026600080911501909116010E94191E0E942A1C4A
:1026700063E580911501909116010E94241E0C942F
:102680002A1C843879F40E94451082FF35C067E423
:1026900080911501909116010E94191E0E942A1C1A
:1026A00067E4E7CF9CEF980F913A10F4682FE1CFE1
:1026B00090E2980F983050F4877091E001C0990F24
:1026C0008A95EAF7892F0E94661CD9CF9BE5980F5F
:1026D000933020F480E090E00C94A51098E5980FDA
:1026E000953120F480E090E00C94BB10803F20F006
:1026F0000E943A200C94BF200895882321F00E9464
:10270000601C0C942A1C0895882321F00E94661CEA
:102710000C942A1C08958F929F92AF92BF92DF92E1
:10272000EF92FF920F931F93CF93DF937C01D62FED
:10273000C72FFC01058102950F70128111110E94B3
:10274000801C0E94231C882379F0112369F080E209
:102750008D0F883048F082E00E940C1C0E94231CE0
:1027600091E0D82ED92601C0D12CAC2EA2948FE0B6
:10277000A822B12CF501EF58FF4F0C940A2E8C2F94
:10278000807FCF70882311F0C295C07F112399F00C
:10279000CC2309F4C9C180E28D0F883010F0D1112B
:1027A00004C08C2F0E94601C03C08C2F0E94731CDD
:1027B0000E942A1CB9C18D2F0E941513CC2309F445
:1027C000D8C180E28D0F883010F0D11104C08C2F59
:1027D0000E94661C03C08C2F0E94791C0E942A1C38
:1027E000C8C18C2F807FCF70803211F0C295C07F1E
:1027F000DD2319F0D130C9F022C0112371F000237C
:1028000041F0013031F40E94991C8C2B0E94931CE2
:10281000B0C10E94991C8C2B40C1002319F00130DB
:1028200009F4A7C10E94961C12C0112321F00630A2
:1028300008F09FC108C0053008F09BC108C01123F3
:1028400021F0011171C18C2F28C101117EC18C2F83
:102850002AC18C2F86958695837090E0009719F099
:10286000019761F086C1112321F08D2F9C2F937069
:1028700002C080E090E00E94A5108BC1112321F0DE
:102880008D2F9C2F937002C080E090E00E94BB10BF
:1028900080C11123F9F0D53F51F0D63F71F0D43FFC
:1028A000A9F480913E0290913F0281600BC080911B
:1028B0003E0290913F02826005C080913E0290915D
:1028C0003F02846090933F0280933E028D2F0E94CE
:1028D000D21F1EC0D53F51F0D63F71F0D43FA9F4AE
:1028E00080913E0290913F028E7F0BC080913E020C
:1028F00090913F028D7F05C080913E0290913F02F2
:102900008B7F90933F0280933E028D2F0E943A204E
:102910000E94BF203EC18C2F837009F050C011115E
:1029200034C18D2F829586958770880F880F9D2FD3
:102930009F70892E912CA12CB12C082E04C0880CDC
:10294000991CAA1CBB1C0A94D2F7D4FF14C00FE038
:1029500010E020E030E0B901A80104C0440F551F89
:10296000661F771F8A95D2F7CB01BA0160957095E3
:102970008095909503C060E070E0CB01C695C69548
:10298000C370D0E0C230D10561F0C330D10581F011
:10299000682979298A299B29219771F00E94461A72
:1029A000F4C0682979298A299B290E94581AEDC008
:1029B0000E94461AC501B4010E94341AE6C01123D0
:1029C00019F08C2F817001C08695882309F4DDC031
:1029D0008D2F829586958770880F880F9D2F9F7009
:1029E000892E912CA12CB12C082E04C0880C991C86
:1029F000AA1CBB1C0A94D2F7D4FF14C00FE010E04D
:102A000020E030E0B901A80104C0440F551F661F43
:102A1000771F8A95D2F7CB01BA01609570958095A2
:102A2000909503C060E070E0CB01C695C695C37079
:102A30004C2F50E04230510569F04330510589F088
:102A4000682979298A299B294130510571F00E9412
:102A50000C1B9BC0682979298A299B290E941E1B6F
:102A600094C00E940C1BC501B4010E94FA1A8DC0CB
:102A70008D2F90E0FC01E05EF109E531F10508F0F1
:102A80004FC0EF57FF4F0C940A2EDF708C2F8F71C1
:102A9000112331F00E94931A8D2F0E947D1369C07B
:102AA0000E94B41A8D2F0E94841363C0112341F039
:102AB000053008F05EC08C2F8F710E94D91A59C062
:102AC000063008F056C0F7CF112339F08C2F8F71E4
:102AD0000E94931A4EC01123C9F38C2F8F710E944C
:102AE000B41A47C0112329F08C2F8F710E947E1ACF
:102AF00040C00E94791A3DC0112349F0CF718C2F3C
:102B00000E94931A63E08C2F0E94031C32C081E064
:102B10000E940C1C023068F182E00E940C1C29C04B
:102B2000112331F0002391F28D2F0E94FC1121C05E
:102B3000002399F2D93349F45FEF67EE73E0515007
:102B400060407040E1F700C000008D2F0E94151317
:102B500010C04C2F4F706D2FC7010E941F0B0E9499
:102B6000A51917C04C2F4F706D2FC7010E94220B63
:102B700010C088E0A816B10441F05CF0EAE0AE1A9B
:102B8000B108F2E0AF16B10420F40E9445100E9493
:102B90008709DD20E1F00E94FF1B80FD18C0F701CE
:102BA00012820E94F91B0E94931AC7010E94F3151A
:102BB0000E94F91BDF91CF911F910F91FF90EF9031
:102BC000DF90BF90AF909F908F900C94B41ADF91DC
:102BD000CF911F910F91FF90EF90DF90BF90AF903A
:102BE0009F908F9008950F931F93CF93DF93EC01E5
:102BF000888199812B813C81232BB9F09F3F11F46F
:102C00008F3F99F0CE010E949F09882371F068815F
:102C100079818A810E94D61B8C010E94301B0E9400
:102C2000311AB801CE010E948B13DF91CF911F9111
:102C30000F9108950E94801C0E94901C80911501A4
:102C4000909116010E942F1E0E942A1C0E94E721CB
:102C50000E94BF2080E090E00E94A51080E090E0FC
:102C60000C94BB100E946D1C0C941A160E94CB1B76
:102C7000E92FE295EF70F0E03297EE30F105B0F415
:102C8000EA56FF4F0C940A2E803F91F018F4803ED4
:102C900068F40EC0843F51F40BC0803E48F0813F81
:102CA00029F406C093FB882780F9089580E00895F1
:102CB00081E00895CF93DF9300D000D01F92CDB76D
:102CC000DEB70F900F900F900F900F90DF91CF9184
:102CD0000895CF93DF9300D000D000D0CDB7DEB7FA
:102CE00026960FB6F894DEBF0FBECDBFDF91CF9111
:102CF00008951F93CF93DF93C091880116E08091D0
:102D00008901C81799F0D0E01C9FF0011D9FF00DBC
:102D10001124E657FE4F4081518162817381848185
:102D200095810E9469162196C770E9CFDF91CF91F6
:102D30001F9108954091BA015091BB016091BC016F
:102D40007091BD018091BE019091BF010C946916F4
:102D5000209188019091890156E02917A9F030E06F
:102D6000529FF001539FF00D1124E657FE4F7181E1
:102D7000671306C07081871303C07281471306C0B2
:102D80002F5F3F4F2770E9CF80E0089581E00895DD
:102D90008091BF0182958F7009F054C08091BC0171
:102DA000882309F44FC080918801A0918901609126
:102DB000BA017091BB014091BD015091BE01B6E0D6
:102DC0008A1709F43FC090E041155105C1F17F3FDA
:102DD00011F46F3FA1F1B89FF001B99FF00D1124DC
:102DE000E657FE4F218172132AC02081621327C04B
:102DF0002281211124C0238134812417350710F446
:102E000021503109241B350B2A3F3105C0F4209194
:102E1000BF012F7020612093BF0126E0289FF001A1
:102E2000299FF00D1124E157FE4F80818F70806142
:102E300080838AEB91E00E94F3150C947916019639
:102E40008770BECF0895AF92BF92CF92DF92EF927C
:102E5000FF920F931F93CF93DF93CDB7DEB76297A7
:102E60000FB6F894DEBF0FBECDBF7C0185E0F70141
:102E7000DE011D9601900D928A95E1F7D7010C9124
:102E800011965C9111971296BC9012971396CD9063
:102E9000DC9014973091BA014091BB018091BD0143
:102EA0009091BE01009709F47DC14F3F19F43F3F57
:102EB00009F478C1A090BC01AA2009F40DC12091A9
:102EC000BF01C816D90628F0F601E81BF90BCF019F
:102ED00004C0809590958C0D9D1D11E08A3F910551
:102EE00088F010E0207F09F0BEC07C2DD98AC88A06
:102EF000402F6B2D89890E945A168AEB91E00E941F
:102F0000F31548C1822F807F09F075C0451314C0A6
:102F1000301312C0B11010C02F7020612093BF0178
:102F20000E949A168AEB91E00E94F3158091BF01EE
:102F3000D70115968C9320C0CD2809F452C05F3F6D
:102F400019F40F3F09F44DC0B11018C040E0652FCF
:102F5000802F5A8B0E94A8165A89882379F08AEB11
:102F600091E00E94F315EAEBF1E086E0DF011D92AB
:102F70008A95E9F70E949A1610E031C15F3F11F47B
:102F80000F3F79F1B1102DC040E0652F802F5A8B93
:102F90000E94A816182F5A89811123C00D875E87B9
:102FA0008D859E850E94CB1B292F22952F7030E0A6
:102FB0002230310524F02430310534F05EC09F709A
:102FC00051F0811108C00BC19F7029F0F701958164
:102FD000907F09F404C190E2980F983008F04DC03A
:102FE000FEC01B2DBB2009F4FAC08091BF01816097
:102FF0008093BF01C1CF451308C0301306C0B11084
:1030000004C08091BF01D7019DC00D875E878D856B
:103010009E850E943616882381F1BB2071F1209194
:10302000BF01822F82958F7090E0029774F080919B
:10303000BA019091BB0198878F831986DB86CA8677
:103040002C87CE0107960E94F31586E0F701AAEBC4
:10305000B1E001900D928A95E1F70E94C8160E9496
:103060009A1611E0BCC0451761F00D875E878D850B
:103070009E850E943616811118C0C7010E94F31563
:10308000F0CF3013F2CFB110F0CF8091BF01F70134
:103090008583C7010E94F31586E0EAEBF1E0DF01CA
:1030A0001D928A95E9F71A2D9AC0BB2031F3209121
:1030B000BF01822F82958F7090E0029734F2809149
:1030C000BA019091BB019A8389831B82DD82CC82F5
:1030D0002E83CE010196B7CFC816D90628F0F60187
:1030E000E81BF90BCF0104C0809590958C0D9D1DB8
:1030F0008A3F910550F010E07C2DD98AC88A402F74
:103100006B2D89890E945A1645C01B2DBB2009F4DE
:10311000B4CF45132EC030132CC02091BF0120FD29
:103120001FC0822F82958F70D9F0D70115962C93EE
:1031300015978F3049F08F5F982F9295907F822F4F
:103140008F70892B15968C93C7010E94F31586E02A
:10315000F701AAEBB1E001900D928A95E1F73DC02D
:1031600086E0F701AAEBB1E001900D928A95E1F7B4
:1031700036C00D875E878D859E850E94361681112B
:1031800064CF8091BF0181608093BF01C7010E941D
:10319000F31525C0EAEBF1E086E0DF011D928A9588
:1031A000E9F71BC0BB2009F468CF0D875E878D85CA
:1031B0009E850E943616182F882309F45ECF86E07C
:1031C000F701AAEBB1E001900D928A95E1F78AEB45
:1031D00091E00E94F6110E94C8160E949A16812F53
:1031E00062960FB6F894DEBF0FBECDBFDF91CF91D0
:1031F0001F910F91FF90EF90DF90CF90BF90AF9015
:1032000008951F93CF93DF93CDB7DEB72C970FB6FA
:10321000F894DEBF0FBECDBF4F83588769877A878A
:103220008B879C87CE0107960E942317882369F01D
:103230008F8198852A853B85232BF1F19F3F09F0EB
:1032400063C08F3F09F060C037C086E0FE0137964B
:10325000DE01119601900D928A95E1F76F817885D4
:10326000EA85FB85309741F17F3F11F46F3F21F1F3
:103270002091890130E0C90101968770992740911A
:10328000880150E08417950709F447C069837A8361
:10329000FD83EC8396E0929FD001939FB00D1124A3
:1032A000A657BE4FFE01319601900D929A95E1F717
:1032B000809389010E94791616E08091880190918F
:1032C00089018917C1F1189FC001112486579E4FAB
:1032D0000E942317882379F1E09188011E9FF00155
:1032E0001124E657FE4F40815181628173818481B0
:1032F00095810E9469168091880190E001968770FF
:10330000992780938801D9CF4F81588569857A851F
:103310008B859C850E946916CFCF0E943216109231
:10332000890110928801EAEBF1E086E0DF011D924D
:103330008A95E9F7C1CF2C960FB6F894DEBF0FBE81
:10334000CDBFDF91CF911F910895EF92FF920F9320
:103350001F93CF93DF938C01892B09F46CC0F12C60
:10336000EE24E394E8012196F8018491843740F437
:10337000843008F051C0813081F0823019F15BC097
:10338000853709F444C0A8F19CE7980F903708F0FE
:1033900052C08F770E94151341C00E5F1F4FFE0170
:1033A000C49180E28C0F883048F4C7708E2D01C024
:1033B000880FCA95EAF70E94831C14C08C2F0E94C4
:1033C000FC112DC00E5F1F4FFE01C49180E28C0FD7
:1033D000883058F4C7708E2D01C0880FCA95EAF75F
:1033E0000E94891C0E942A1C1AC08C2F0E9415134F
:1033F00016C00E5F1F4FFE01C491CC2381F08FE9F0
:103400009FE00197F1F700C00000C150F6CF0E5FBA
:103410001F4FFE01F49003C00E94FC118E018F2DFE
:10342000882309F49FCFEFE9FFE03197F1F700C05F
:1034300000008150F5CFDF91CF911F910F91FF9048
:10344000EF90089508950C94221A0E94231A609315
:10345000E2017093E3018093E4019093E5010C9401
:103460001A1608950C94251A0F931F930091E201E8
:103470001091E3012091E4013091E501602B712B63
:10348000822B932B1F910F910C94251A0F931F934E
:103490000091E2011091E3012091E4013091E501F6
:1034A00060237123822393231F910F910C94251A7B
:1034B0000F931F930091E2011091E3012091E40129
:1034C0003091E50160277127822793271F910F9183
:1034D0000C94251A08950C946A1A0E946B1A609332
:1034E000DE017093DF018093E0019093E1010C9481
:1034F0001A1660E070E0CB010C946D1A0F931F93C5
:1035000041E050E060E070E08A019B0104C0000FE0
:10351000111F221F331F8A95D2F7C901B8011F91CD
:103520000F910C946D1A0F931F9341E050E060E0EF
:1035300070E004C0440F551F661F771F8A95D2F7AD
:103540008091DE019091DF01A091E001B091E10155
:103550008A019B01082B192B2A2B3B2BC901B8018F
:103560001F910F910C946D1A0F931F9341E050E03F
:1035700060E070E004C0440F551F661F771F8A95F6
:10358000D2F740955095609570958091DE019091AD
:10359000DF01A091E001B091E1018A019B010823C4
:1035A00019232A233B23C901B8011F910F910C94C1
:1035B0006D1A0F931F9341E050E060E070E004C08B
:1035C000440F551F661F771F8A95D2F78091DE0141
:1035D0009091DF01A091E001B091E1018A019B018E
:1035E000082719272A273B27C901B8011F910F91E6
:1035F0000C946D1A0F931F930091DE011091DF015F
:103600002091E0013091E101602B712B822B932BF3
:103610001F910F910C946D1A0F931F930091DE016F
:103620001091DF012091E0013091E10160237123CD
:10363000822393231F910F910C946D1A0F931F9364
:103640000091DE011091DF012091E0013091E10154
:1036500060277127822793271F910F910C946D1A71
:1036600008952BE0929F800D1124A82FA695A69572
:10367000A695877051E001C0550F8A95EAF785E05D
:10368000A89FD001112420E030E070E0F901EA0F9A
:10369000FB1FE054FE4F4081CB01022E02C09695E5
:1036A00087950A94E2F7817099278195842785236D
:1036B000842780832F5F3F4F2530310539F70895E8
:1036C0002BE0929F800D1124682F66956695669574
:1036D000982F977085E0689FB001112440E050E07A
:1036E00080E0FA01E60FF71FE054FE4F208130E042
:1036F000092E02C0369527950A94E2F721703327E8
:10370000042E01C0220F0A94EAF7822B4F5F5F4F0D
:103710004530510531F70895CF92DF92EF92FF9235
:103720000F931F93CF93DF938C01C090E201D09051
:10373000E301E090E401F090E5018091DE019091D9
:10374000DF01A091E001B091E101C82AD92AEA2A5B
:10375000FB2ACFE1D0E0D701C6010C2E04C0B695FC
:10376000A795979587950A94D2F780FF06C0B80170
:103770008C2F0E943D0B019721F4219760F780E088
:1037800001C08C2FDF91CF911F910F91FF90EF908F
:10379000DF90CF900895CF93DF93EC010E948C1BB4
:1037A000BE010E943D0BDF91CF9108951F93CF93EF
:1037B000DF93EB0190918701992321F0CB010E94C7
:1037C000CB1B13C0882349F0CB010E948C1B182F00
:1037D000682FCE010E94311B04C0CB010E94601BE8
:1037E000182FBE01812F0E943D0BDF91CF911F91B9
:1037F00008958091E6018595859585950895809138
:10380000E6018770089598E0899F90011124262B86
:103810002093E6010C94931A2091E601809582236F
:103820008093E601982F977069F430E0482F082EB6
:10383000000C550B2417350729F08595859585953E
:103840000C94B41A08959091E601977081E009F400
:1038500080E00895E0911501F091160180910A022F
:103860008083E0911501F091160190818091090209
:10387000892B8083E0911501F09116019081809150
:103880000802892B80838091E701882381F0E091F1
:103890001501F09116019081892B8083809115018B
:1038A000909116010E949B1D81111092E701809159
:1038B0001501909116010C94511080910A020895FF
:1038C00090910A02892B80930A0208958095909125
:1038D0000A02892380930A02089510920A02089529
:1038E00080910902089590910902892B8093090221
:1038F0000895809590910902892380930902089583
:1039000010920902089590910802892B8093080271
:103910000895809590910802892380930802089564
:103920001092080208958093E70108951092E7012C
:1039300008958091E701089590935B0180935A0167
:103940000895CF92DF92EF92FF926C01EE24FF2454
:10395000C114D104E104F10421F0C701B60120E152
:1039600001C020E0C72ED82EE92EFF24C114D104B7
:10397000E104F10419F0285FC701B6016B017C0175
:1039800054E0F694E794D794C7945A95D1F7C114AC
:10399000D104E104F10419F02C5FC701B6016B01F9
:1039A0007C0142E0F694E794D794C7944A95D1F706
:1039B000C114D104E104F10419F02E5FC701B6016E
:1039C000DC01CB01B695A79597958795892B8A2B16
:1039D0008B2B09F02F5F822FFF90EF90DF90CF901D
:1039E00008958295982F9C7C392F36953695282FEF
:1039F000237344E0249FC0011124932F982B292F77
:103A00002A7A2695892F8575880F822B08951F9312
:103A1000CF93DF931F92CDB7DEB799830E94F11C3D
:103A2000182F9981892F0E94F11C212F30E0322F0D
:103A30002227A901482BCA010F90DF91CF911F9136
:103A4000089580E090E00E942C2E21E08D3E9E4F54
:103A500009F020E0822F089580E090E00E942C2E53
:103A600021E0019609F020E0822F089582E090E0A5
:103A70000C94242E83E090E00C94242E84E090E0BB
:103A80000C94242E682F84E090E00C94322EAB012D
:103A9000BC018FE090E00C94442EAB01BC0183E1AB
:103AA00090E00C94442E60E070E0CB010C944D1D2E
:103AB00060E070E0CB010E94471D0C94531D6DEE39
:103AC0007EEF80E090E00E94502E60E082E090E087
:103AD0000E94322E60E083E090E00E94322E10922D
:103AE000E2011092E3011092E4011092E50160E01E
:103AF00084E090E00E94322E60E085E090E00E9439
:103B0000322E60E086E090E00E94322E6FEF87E078
:103B100090E00E94322E40E050E0BA0188E090E050
:103B20000E94442E60E08DE090E00E94322E0C94C2
:103B3000581D0C945F1DFC0131969C01205E3F4F87
:103B400080E0919191118F5FE217F307D1F708950B
:103B50009C01FC0132969FEF80E04191461789F06D
:103B60009F3F19F4411101C0982F8F5F8E31A9F743
:103B70009F3F39F0F901E90FF11D97FDFA95628336
:103B800008950895FC01329680962081261301C085
:103B900010823196E817F907C1F70895262F269568
:103BA000269526952F3170F4FC01E20FF11D677008
:103BB00021E030E001C0220F6A95EAF78181282BCD
:103BC0002183089580910B0280FF0CC01F926F9398
:103BD0008EEB95E09F938F930E9491080F900F902A
:103BE0000F900F900895262F2695269526952F3114
:103BF00078F4FC01E20FF11D677021E030E001C0B4
:103C0000220F6A95EAF72095818128232183089560
:103C100080910B0280FF0CC01F926F9380EA95E0A9
:103C20009F938F930E9491080F900F900F900F9089
:103C3000089520912701222329F02091440227FD95
:103C40000C94CE1D0C94A81D20912701222329F04D
:103C50002091440227FD0C94F31D0C94C21DFC011D
:103C6000319680961192E817F907E1F708950895C3
:103C70000C94371E0E94381E80914A02843049F10C
:103C800010920C0220E488E190E00FB6F894A89519
:103C9000809360000FBE2093600080E00E9487093F
:103CA0000E94381E83B7817F846083BF83B78160A1
:103CB00083BF7894889583B78E7F83BF0FB6F894BF
:103CC000A8958091600088618093600010926000E8
:103CD0000FBE089508950895CF930E946A1E0E9412
:103CE000DF0D0E946B1EC0E08C2F0E94A10E892B5D
:103CF00029F4CF5FC430C1F780E001C081E0CF91EB
:103D0000089508950C94811E0E9432160E94451059
:103D10000E9487090C94821E1F920F920FB60F9279
:103D200011248F939F93AF93BF9380910C028111C5
:103D300013C08091400290914102A0914202B09143
:103D400043024196A11DB11D809340029093410210
:103D5000A0934202B0934302BF91AF919F918F9184
:103D60000F900FBE0F901F90189582E084BD93E0D6
:103D700095BD9AEF97BD80936E0008952FB7F89484
:103D80008091400290914102A0914202B091430281
:103D90002FBF08952FB7F8946091400270914102AF
:103DA00080914202909143022FBF0895CF92DF92FB
:103DB000EF92FF920F931F932FB7F8944091400218
:103DC0005091410260914202709143022FBF6A01FB
:103DD0007B01EE24FF248C0120E030E0C016D106E8
:103DE000E206F30610F4415051099A01281B390BE1
:103DF000C9011F910F91FF90EF90DF90CF90089530
:103E000078941F920F920FB60F9211248F939F9365
:103E1000AF93BF938091400290914102A0914202E2
:103E2000B09143020196A11DB11D80934002909371
:103E30004102A0934202B0934302BF91AF919F9180
:103E40008F910F900FBE0F901F90189587E797E7FF
:103E500090930108809300089AE088E10FB6F894E7
:103E6000A895809360000FBE90936000FFCF0E94E2
:103E7000211D811102C00E94991D0E94361D809350
:103E80000B020E943E1D90E09093450280934402F5
:103E90000E943A1D682F70E080E090E00C94321A86
:103EA00080910F0280FF0BC060911A0185E0689F2E
:103EB000B001112475956795759567952BC081FFA5
:103EC00009C060911A0185E0689FB00111247595C1
:103ED000679520C082FF07C060911A0185E0689F46
:103EE000B001112417C0909110029923D1F0609174
:103EF0001901961788F720911A0185E0289F9001F3
:103F00001124929FA001939F500D112470E0CA01CB
:103F10000E94F62D6038710540F46115710539F085
:103F200002C065E070E0862F08958FE7089581E074
:103F3000089580910F0280FF08C06091180170E021
:103F4000759567957595679521C081FF06C060914D
:103F5000180170E07595679519C082FF04C06091E3
:103F6000180170E010C0909110029923C1F0609187
:103F700017019617A0F780911801899FC00111249D
:103F800070E00E94F62D6038710528F46115710506
:103F900021F0862F08958FE7089581E0089561E06C
:103FA00070E0F4CF803F21F40E94501F819504C03F
:103FB000813F29F40E94501F809313020895823F8D
:103FC00021F40E94501F819504C0833F29F40E9470
:103FD000501F809312020895893F19F40E94991F7F
:103FE00005C08A3F31F40E94991F81958093140285
:103FF00008958B3F21F40E94991F819504C08C3F46
:1040000029F40E94991F809315020895843F21F49A
:1040100080911102816017C0853F21F480911102C7
:10402000826011C0863F21F48091110284600BC030
:10403000873F21F480911102886005C0883F31F4E8
:104040008091110280618093110208958D3F21F4C7
:1040500080910F0281600BC08E3F21F480910F028E
:10406000826005C08F3F29F480910F0284608093A5
:104070000F020895803F39F48091130287FF6CC0CE
:104080001092130269C0813F29F48091130218161F
:10409000BCF362C090911202823F29F497FF5CC08A
:1040A0001092120259C0833F19F41916CCF354C070
:1040B000893F41F48091140218160CF04DC0109203
:1040C00014024AC08A3F29F48091140287FF44C039
:1040D000F6CF8B3F39F48091150287FF3DC01092D7
:1040E00015023AC08C3F29F4809115021816BCF3D2
:1040F00033C0843F21F4809111028E7F17C0853F29
:1041000021F4809111028D7F11C0863F21F48091AE
:1041100011028B7F0BC0873F21F480911102877FB2
:1041200005C0883F31F4809111028F7E8093110287
:1041300013C08D3F21F480910F028E7F0BC08E3F04
:1041400021F480910F028D7F05C08F3F29F480916B
:104150000F028B7F80930F028091120281110EC09B
:104160008091130281110AC080911402811106C04E
:1041700080911502811102C0109210020895809161
:104180000B0283FF7EC083E096E00E94F8078091D7
:1041900011021F928F938EEF95E09F938F930E9451
:1041A00091088CEF95E00E94F80780911202282F69
:1041B000082E000C330B3F938F9389EF95E09F936C
:1041C0008F930E94910887EF95E00E94F8078091F5
:1041D0001302282F082E000C330B3F938F9384EF8C
:1041E00095E09F938F930E94910882EF95E00E9443
:1041F000F80780911402282F082E000C330B3F93F0
:104200008F938FEE95E09F938F930E9491088DEE90
:1042100095E00E94F80780911502282F082E000CC7
:10422000330B3F938F938AEE95E09F938F930E9479
:10423000910887EE95E00E94F807809110021F9286
:104240008F9384EE95E09F938F930E94910882EE66
:1042500095E00E94F80780910F021F928F938FEDD7
:1042600095E09F938F930E9491088CED95E00E94BA
:10427000F8078DB79EB74C960FB6F8949EBF0FBE49
:104280008DBF81E192E00E949A100E94BE1E909321
:104290000E0280930D0208951F93CF93DF938091B8
:1042A0000D0290910E020E94D61EAC019091100258
:1042B000992321F020911B0130E006C020911C01C0
:1042C0008AE0289F900111244217530708F47BC00D
:1042D00080911202C0911302D09114021091150224
:1042E000811107C0C1116BC0D11169C0111167C024
:1042F0006AC09F3F19F09F5F90931002181624F434
:104300000E94501F809312028091120287FF05C005
:104310000E94501F8195809312021C1624F40E9463
:10432000501F809313028091130287FF05C00E94E3
:10433000501F819580931302309112023323E1F0D4
:10434000209113022223C1F045EB3403C001112454
:10435000892F990F990B009709F481E0809312023D
:1043600035EB2303C0011124892F990F990B009776
:1043700009F481E0809313021D1624F40E94991F12
:10438000809314028091140287FF05C00E94991F38
:10439000819580931402111624F40E94991F809332
:1043A00015028091150287FF05C00E94991F819513
:1043B00080931502DF91CF911F910C94BF209F3FF6
:1043C00009F099CFA1CFDF91CF911F910895E1E13D
:1043D000F2E085E0DF011D928A95E9F71092100264
:1043E00010920F02089586E298E00E94F8071F924B
:1043F00081E08F931F9285E08F9388ED97E09F93E4
:104400008F930E9491080F900F900F900F900F9034
:104410000F9008958330E9F128F4813061F0823003
:1044200009F10895853009F462C008F449C0863066
:1044300009F474C0089580911C01262F30E0280FE4
:10444000311D2F3F310524F4680F60931C0103C018
:104450008FEF80931C0180911C011F928F9381E14B
:1044600097E072C080911B01262F30E0280F311D8C
:104470002F3F310524F4680F60931B0103C08FEFB9
:1044800080931B0180911B011F928F938FEF96E009
:104490005BC080911A01262F30E0280F311D2F3F7D
:1044A000310524F4680F60931A0103C08FEF8093E5
:1044B0001A0180911A011F928F938CEE96E044C0EE
:1044C00080911901262F30E0280F311D2F3F310533
:1044D00024F4680F6093190103C08FEF80931901D2
:1044E000809119011F928F9387ED96E02DC08091E6
:1044F0001801262F30E0280F311D2F3F310524F4FD
:10450000680F6093180103C08FEF809318018091AA
:1045100018011F928F938EEB96E016C080911701C1
:10452000262F30E0280F311D2F3F310524F4680F6E
:104530006093170103C08FEF8093170180911701DB
:104540001F928F9383EA96E09F938F930E94910826
:104550000F900F900F900F900895833081F128F401
:10456000813059F08230D1F00895853009F449C086
:10457000B8F1863009F456C0089580911C0168177F
:1045800020F4861B80931C0102C010921C018091B4
:104590001C011F928F9384E996E054C080911B0107
:1045A000681720F4861B80931B0102C010921B0128
:1045B00080911B011F928F9382E896E043C0809107
:1045C0001A01681720F4861B80931A0102C010920A
:1045D0001A0180911A011F928F938FE696E032C0E4
:1045E00080911901681720F4861B8093190102C07D
:1045F00010921901809119011F928F938AE596E01C
:1046000021C080911801681720F4861B809318013F
:1046100002C010921801809118011F928F9381E4BB
:1046200096E010C080911701681720F4861B8093D4
:10463000170102C010921701809117011F928F93EA
:1046400086E296E09F938F930E9491080F900F90BF
:104650000F900F900895CF93C82F1F928F938BE2E6
:1046600099E09F938F930E94910881E090E0A0E0F1
:10467000B0E0BC01CD0104C0660F771F881F991FF1
:10468000CA95D2F70E94321A0F900F900F900F9098
:10469000CF910C943216CF938732A8F58E3108F063
:1046A00032C1803109F49FC0F8F4873009F465C045
:1046B000A8F4863009F02DC180910B02817F8E7F96
:1046C00080930B0287EC9AE00E94F80788E29DE055
:1046D0000E94F80781E0809317024DC08B30F1F102
:1046E0008E3009F46CC015C1863109F4B0C020F4D5
:1046F000813109F4F0C00DC1893109F491C08B31C9
:1047000009F449C006C1883349F150F4893209F4EB
:10471000FCC0853309F4F9C0873209F4F6C0F9C04A
:10472000833409F4F2C028F48A3308F4F2C08953C0
:10473000EDC0883409F0EDC00E9432168CE09DE097
:104740000E94F8072FEF83ED90E3215080409040C6
:10475000E1F700C000000E94261F0DC08EEE9AE017
:104760005CC083EF9CE00E94F80780910B02897F78
:10477000877F80930B02C1E0D1C080910B02C82FCC
:10478000C095C170C0FB80F980930B02CC2349F324
:1047900080E09DE0B2C090910B0291FBCC27C0F964
:1047A00081E0C827892FC0FB81F980930B02CC23BD
:1047B00019F086EE9CE027C088ED9CE02EC0909119
:1047C0000B0292FBCC27C0F981E0C827892FC0FBE0
:1047D00082F980930B02CC2319F089EC9CE013C082
:1047E00089EB9CE01AC090910B0293FBCC27C0F997
:1047F00081E0C827892FC0FB83F980930B02CC236B
:1048000051F08DEA9CE00E94F80780910B028160D4
:1048100080930B0283C080EA9CE00E94F807ABCF34
:1048200088EB9AE00E94F8078DE89AE00E94F8076A
:1048300083E59AE00E94F8078AE19AE00E94F8076F
:104840008FED99E00E94F80781EB99E0E6CF83EACB
:1048500099E00E94F8070E9445101F928F9389E803
:1048600099E09F938F930E949108809127011F9256
:104870008F9382E799E09F938F930E949108809194
:104880003C021F928F938FE599E09F938F930E9434
:1048900091088091440287FB882780F91F928F93AB
:1048A00087E499E09F938F930E9491080E94CA1E0B
:1048B0009F938F937F936F9380E399E09F938F9360
:1048C0000E9491088DB79EB746960FB6F8949EBF8A
:1048D0000FBE8DBF50CF0E9432169091440297FBBD
:1048E000CC27C0F981E0C827892FC0FB87F98093C6
:1048F0004402CC2329F086E99CE00E94F8070EC010
:104900008BE89CE08ACF8D5101C080E00E942B2370
:1049100032CF89E89CE00E94F807C0E08C2FCF914D
:10492000089580E0089580E008958E518A3030F433
:10493000E82FF0E0E95CFE4F8081089580E0089563
:10494000CF93C82F80911702813071F020F0823010
:1049500009F44BC03FC1E0911501F091160180812F
:10496000823209F039C107C0E0911501F0911601BA
:104970008081823261F48C2F0E949124811104C0C5
:104980008C2F0E944B232FC081E090E02CC08C2FF5
:104990000E949324811126C0C431E1F070F4CB3021
:1049A00081F0C031D1F40E94F32183E299E00E94AA
:1049B000F80782E08093170215C0C93259F0C83356
:1049C00061F487EC9AE00E94F80787E299E00E9480
:1049D000F80708C01092170201C181E299E00E9415
:1049E000F807FCC081E08170FBC0C43228F5CE31ED
:1049F00008F0C1C0CB30A1F1D0F4C73009F0D0C06D
:104A00008EE180931C0182E380931B018AE08093F6
:104A10001A0184E18093190188E08093180188E2EB
:104A20008093170187EC97E00E94F807BCC0C33160
:104A300049F1C431C1F0B4C0CB3409F4A6C028F4A4
:104A4000C93289F0C83361F0ABC0C13509F49BC0ED
:104A5000C23509F496C0CE3409F0A2C06AE09BC00A
:104A60000E94F321A0C080911602882319F01092B1
:104A7000160299C084ED97E00E94F80781E08093C8
:104A80001702AEC08EEA97E00E94F8078CE997E023
:104A90000E94F80780911C011F928F9389E997E08B
:104AA0009F938F930E94910887E997E00E94F807EF
:104AB00085E897E00E94F80780911B011F928F9371
:104AC00082E897E09F938F930E94910880E897E097
:104AD0000E94F80781E797E00E94F80780911A0189
:104AE0001F928F938EE697E09F938F930E94910879
:104AF0008CE697E00E94F8078BE597E00E94F807A4
:104B0000809119011F928F9388E597E09F938F936F
:104B10000E94910886E597E00E94F80781E497E0FB
:104B20000E94F807809118011F928F938EE397E0FF
:104B30009F938F930E9491088CE397E00E94F8075F
:104B400085E297E00E94F807809117011F928F93EA
:104B500082E297E09F938F930E94910880E297E012
:104B60000E94F8078DB79EB748960FB6F8949EBF7F
:104B70000FBE8DBF18C08C2F0E9495248093160203
:104B800012C061E003C061E006C06AE080911602D5
:104B90000E940A2208C0809116020E94AD2203C022
:104BA00085EC97E013C080911602882369F01F926C
:104BB0008F938FEB97E09F938F930E9491080F90B4
:104BC0000F900F900F9004C08CEB97E00E94F807B5
:104BD00081E006C01092170280E002C080E003CF9F
:104BE000CF91089580913B0208959FB7F894109259
:104BF0001A029FBF90914A02943009F057C09091D9
:104C0000E9009F703091EC00232F217030FD20E8E7
:104C1000922B24E02093E9002091EB0020FF43C079
:104C20002091EE0027FF3FC020911802222321F09F
:104C30002091E80025FF37C01092180226E030913D
:104C4000E80035FD15C030914A02343061F53091ED
:104C5000EB0035FD28C0215021F481E0809318023B
:104C600022C0EFE9FFE03197F1F700C00000E7CF85
:104C70008093F1008091E80085FD0AC08091E800F2
:104C800080FFFCCF8091E8008E778093E80006C01B
:104C90008FB7F89421E020931A028FBF9F709093F2
:104CA000E90080E008959F709093E9008FEF0895E8
:104CB0000F931F93CF93DF9300D01F92CDB7DEB732
:104CC0008C010E943229823011F0843019F593E072
:104CD00099831B830A839093E9008FEF9091E800FA
:104CE000815095FD06C095ED9A95F1F70000811170
:104CF000F5CF8091E80085FF0DC040E050E063E013
:104D000070E0CE0101960E944F298091E8008E77D5
:104D10008093E8000F900F900F90DF91CF911F913B
:104D20000F910895CF93DF9300D01F92CDB7DEB7D8
:104D300020914A02243031F522E0298380589109DC
:104D40009B838A8383E08093E9008FEF9091E80052
:104D5000815095FD06C095ED9A95F1F700008111FF
:104D6000F5CF8091E80085FF0DC040E050E063E0A2
:104D700070E0CE0101960E944F298091E8008E7765
:104D80008093E8000F900F900F90DF91CF910895DE
:104D9000CF93DF93EC010E943229823011F08430EE
:104DA000F9F482E08093E9009FEF8091E800915050
:104DB00085FD06C085ED8A95F1F700009111F5CFCC
:104DC0008091E80085FF0CC040E050E065E070E0B5
:104DD000CE010E944F298091E8008E778093E800F1
:104DE000DF91CF910895CF93DF93EC010E94322998
:104DF000823019F0843009F047C080912701882360
:104E0000E1F08091440287FF18C085E08093E900BB
:104E10008FEF9091E800815095FD06C095E19A953D
:104E2000F1F700008111F5CF8091E80085FF2CC0DB
:104E300040E050E060E270E017C081E08093E9005C
:104E40008FEF9091E800815095FD06C095ED9A9501
:104E5000F1F700008111F5CF8091E80085FF14C0C3
:104E600040E050E068E070E0CE010E944F29809160
:104E7000E8008E778093E80080E2FE01ABE1B2E0CB
:104E800001900D928A95E1F7DF91CF91089581E528
:104E90009DE00E94F80780914902811109C00E949B
:104EA000E42A0E94412B8091E20084608093E2001A
:104EB00008958DE49DE00E94F8071092490208953C
:104EC00089E49DE00C94F80785E49DE00C94F807D4
:104ED00081E49DE00E94F8070C94841E2091190241
:104EE0002F5F822F62E30E94EA2D992319F020930D
:104EF000190208951092190280911A02882371F103
:104F000080914A02843041F58091E9008F702091B0
:104F1000EC00922F917020FD90E8892B94E0909303
:104F2000E9009091EB0090FF14C09091EE0097FF84
:104F300010C09091E80095FF03C01092F100F9CFE6
:104F40009091E80090FF05C09091E8009E779093C3
:104F5000E8008F708093E90010921A02089542E0F1
:104F600061EC81E00E945E2A42E061EC82E00E94F6
:104F70005E2A42E061EC83E00E945E2A42E261EC3C
:104F800084E00E945E2A42E261EC85E00C945E2A95
:104F900080914C02833009F455C030F4813071F0B7
:104FA000823009F48EC008958A3009F47AC08B30BB
:104FB00009F460C0893009F09CC020C080914B0288
:104FC000813A09F096C08091E800877F8093E800DD
:104FD00080914F0290915002892B21F460E28BE185
:104FE00092E003C060E080E090E070E00E949A29C7
:104FF0008091E8008B778093E800089580914B02C0
:10500000813209F076C080914F0290915002009752
:1050100019F0049709F06DC08091E800877F8093B4
:10502000E8008091E80082FD05C080914A0281116C
:10503000F8CF5FC08091F10080933B028091E8003F
:105040008B7753C080914B02813A09F052C0809116
:105050004F0290915002892B09F04BC08091E800DB
:10506000877F8093E8008091E80080FFFCCF8091EB
:10507000270136C080914B028132D9F580914F02D1
:1050800090915002892BA9F58091E800877F809349
:10509000E8000E94932A80914D02809327010C948E
:1050A000321680914B02813221F58091E800877F92
:1050B0008093E8000E94932A80914E0280933C02E4
:1050C000089580914B02813AA1F48091E800877F96
:1050D0008093E8008091E80080FFFCCF80913C0243
:1050E0008093F1008091E8008E778093E8000C9423
:1050F000932A089584B7877F84BF0FB6F894A89544
:1051000080916000886180936000109260000FBE03
:1051100080E880936100109261000E94D2100E948A
:10512000E42A0E94412B8091E20084608093E20097
:1051300085EF95E20E949C1C78940E94CF2D0E94DE
:10514000D6108DE191E00E94401080E39DE00E9426
:10515000F80780914A02853089F48CE29DE00E9434
:10516000F8070E943A1E80914802882391F30E941A
:105170006C1E882371F30E943929EBCF0E940A111B
:10518000E8CF0C94C328292F332723303105C9F0E9
:1051900064F42130310581F02230310509F049C035
:1051A0008DE890E029E83DE048C02132310521F149
:1051B0002232310571F13DC082E190E026E13EE00E
:1051C0003CC099278130910571F02CF4892B89F529
:1051D000E5E8FDE00DC08230910541F0039749F507
:1051E000E5E5FDE005C0EBE6FDE002C0EBE5FDE036
:1051F000849190E09F0121C065307105D0F4660F65
:10520000771FFB01E05BFE4F2081318189E090E058
:1052100014C06530710568F4FB01EE0FFF1FEA5BF7
:10522000FE4F20813181FB01EF5BFE4F808190E0DA
:1052300004C080E090E020E030E0FA013183208378
:1052400008950895CF93C82F0E942129C0933D024D
:10525000CF91089580914A02843011F081E0089541
:1052600082E0089580913D02811102C00C942A29A8
:10527000089580E189BD82E189BD09B400FEFDCFBA
:105280008091D8008F7D8093D8008091E00082606B
:105290008093E0008091E00081FDFCCF0895CF92E3
:1052A000DF92EF92FF920F931F93CF93DF93EC0166
:1052B0008B016A010E94B22A811133C0C114D1044A
:1052C00039F0F60180819181081B190BC80FD91F95
:1052D000E12CF12C0115110519F18091E80085FDF3
:1052E00016C08091E8008E778093E800C114D10445
:1052F00049F0F60180819181E80EF91EF182E08289
:1053000085E00FC00E94B22A882321F30AC0899148
:105310008093F10001501109FFEFEF1AFF0ADACF75
:1053200080E0DF91CF911F910F91FF90EF90DF9080
:10533000CF900895209151023091520226173707DD
:1053400048F06115710539F42091E8002E7720931B
:10535000E80001C0B90140E061157105A9F1209193
:105360004A02222309F443C0253009F442C02091A7
:10537000E80023FD40C02091E80022FD32C02091CA
:10538000E80020FFE9CF4091F3002091F20030E0E7
:10539000342BFC01CF016115710559F0283031051E
:1053A00040F481918093F100615071092F5F3F4F6C
:1053B000F1CF41E02830310509F040E02091E800CC
:1053C0002E772093E800C8CF4111C9CF0AC0809141
:1053D0004A02882361F0853061F08091E80083FD06
:1053E0000AC08091E80082FFF2CF80E0089582E059
:1053F000089583E0089581E008952091510230914D
:1054000052022617370748F06115710539F42091CB
:10541000E8002E772093E80001C0B901FC0120E0EC
:105420006115710591F180914A02882309F440C009
:10543000853009F43FC08091E80083FD3DC0809134
:10544000E80082FD2FC08091E80080FFE9CF209125
:10545000F3008091F20090E0922B6115710559F0F4
:105460008830910540F424912093F10031966150E9
:1054700071090196F2CF21E0089709F020E08091B0
:10548000E8008E778093E800CBCF2111CCCF0AC003
:1054900080914A02882361F0853061F08091E800B4
:1054A00083FD0AC08091E80082FFF2CF80E008957A
:1054B00082E0089583E0089581E00895982F973061
:1054C00058F59093E900981739F07091EC0020910D
:1054D000ED005091F00003C0242F762F50E021FF03
:1054E00019C03091EB003E7F3093EB003091ED001E
:1054F0003D7F3093ED003091EB0031603093EB0055
:105500007093EC002093ED005093F0002091EE009A
:1055100027FF07C09F5FD3CF8F708093E90081E0A2
:10552000089580E0089580914B0287FF11C080911B
:10553000E80082FD05C080914A028111F8CF11C0B8
:105540008091E8008B770BC080914A02882349F054
:105550008091E80080FFF8CF8091E8008E778093FB
:10556000E80008952091E4003091E50095E640912F
:10557000EC00842F817040FF22C08091E80080FD04
:105580001CC080914A02882391F0853091F080916F
:10559000EB0085FD10C04091E4005091E5004217FA
:1055A000530729F39A01915011F784E0089582E09E
:1055B000089583E0089581E0089580E00895409182
:1055C000E80042FFDECF08950E94522B0E945A2B22
:1055D000E0EEF0E0808181608083E8EDF0E08081A2
:1055E0008F77808319BCA7EDB0E08C918E7F8C9370
:1055F00080818F7E80831092490208950F931F93BC
:10560000CF93DF930E94522B0E945A2BC8EDD0E01B
:1056100088818F77888388818068888388818F7D5F
:10562000888319BC10924A021092460210924802D6
:105630001092470200EE10E0F80180818B7F80839A
:1056400088818160888342E060E080E00E945E2A79
:10565000E1EEF0E080818E7F8083E2EEF0E08081F9
:1056600081608083808188608083F80180818E7F63
:105670008083888180618883DF91CF911F910F9112
:105680000895E8EDF0E080818F7E8083E7EDF0E023
:1056900080818160808384E082BF81E080934902C1
:1056A0000C94FE2AE8EDF0E080818E7F80831092DA
:1056B000E20008951092DA001092E10008951F921E
:1056C0000F920FB60F9211242F933F934F935F9336
:1056D0006F937F938F939F93AF93BF93EF93FF93BA
:1056E0008091E10082FF0BC08091E20082FF07C041
:1056F0008091E1008B7F8093E1000E946E27809172
:10570000DA0080FF1FC08091D80080FF1BC080910D
:10571000DA008E7F8093DA008091D90080FF0DC07F
:1057200080E189BD82E189BD09B400FEFDCF81E041
:1057300080934A020E94472705C019BC10924A0272
:105740000E9459278091E10080FF19C08091E200FA
:1057500080FF15C08091E2008E7F8093E2008091EF
:10576000E20080618093E2008091D80080628093A3
:10577000D80019BC85E080934A020E94642780917A
:10578000E10084FF30C08091E20084FF2CC080E102
:1057900089BD82E189BD09B400FEFDCF8091D800AA
:1057A0008F7D8093D8008091E1008F7E8093E1000F
:1057B0008091E2008F7E8093E2008091E200816020
:1057C0008093E20080914602882311F084E007C0B4
:1057D0008091E30087FD02C081E001C083E08093F7
:1057E0004A020E9468278091E10083FF29C08091CE
:1057F000E20083FF25C08091E100877F8093E10074
:1058000082E080934A02109246028091E1008E7FEE
:105810008093E1008091E2008E7F8093E20080918E
:10582000E20080618093E20042E060E080E00E945C
:105830005E2A8091F00088608093F0000E946027CB
:10584000FF91EF91BF91AF919F918F917F916F9158
:105850005F914F913F912F910F900FBE0F901F902E
:1058600018951F920F920FB60F9211242F933F930A
:105870004F935F936F937F938F939F93AF93BF9358
:10588000CF93DF93EF93FF93C091E900CF708091A6
:10589000EC00D82FD17080FDD0E81092E900809103
:1058A000F000877F8093F00078940E94752C10920E
:1058B000E9008091F00088608093F000CD2BCF70DC
:1058C000C093E900FF91EF91DF91CF91BF91AF912C
:1058D0009F918F917F916F915F914F913F912F9108
:1058E0000F900FBE0F901F9018951F93CF93DF93CB
:1058F000CDB7DEB7AA970FB6F894DEBF0FBECDBF07
:10590000EBE4F2E088E08E0F9091F10091938E131A
:10591000FBCF0E94C8278091E80083FF28C18091B7
:105920004B0290914C02492F50E04A30510508F04B
:105930001EC1FA01EC55FF4F0C940A2E803821F05D
:10594000823809F014C108C0809147029091480242
:10595000992389F082600FC080914F028F70873049
:1059600008F005C18093E9008091EB0085FB882752
:1059700080F91092E9009091E800977F9093E800F9
:105980008093F1001092F100D0C0282F2D7F09F0F4
:10599000EEC0882319F0823061F0E9C080914D0299
:1059A000813009F0E4C0933009F080E08093480230
:1059B0002EC080914D0281112AC080914F028F70BC
:1059C0002FEF280F263008F0D2C08093E9002091F5
:1059D000EB0020FF1CC0933021F48091EB0080622B
:1059E00014C09091EB0090619093EB0021E030E0C7
:1059F000A90102C0440F551F8A95E2F74093EA00BF
:105A00001092EA008091EB0088608093EB00109286
:105A1000E9008091E800877F8093E8000E94932A44
:105A2000A6C08111A4C010914D021F778091E300A0
:105A30008078812B8093E3008091E800877F8093BA
:105A4000E8000E94932A8091E80080FFFCCF8091BB
:105A5000E30080688093E300111102C082E001C07E
:105A600083E080934A0283C08058823008F07FC070
:105A700080914D0290914E028C3D53E0950779F54F
:105A800083E08A838AE289834FB7F894DE01139614
:105A900020E03EE051E2E32FF0E050935700E49124
:105AA00020FF03C0E295EF703F5FEF708E2F90E014
:105AB000EA3010F0C79601C0C0968D939D932F5F7A
:105AC000243149F74FBF8091E800877F8093E80039
:105AD0006AE270E0CE0101960E949A2915C0609199
