:100000000C940C060C9429060C9429060C942906D1
:100010000C9429060C9429060C9429060C942906A4
:100020000C9429060C9429060C943D2E0C940F2F49
:100030000C9475240C9429060C9429060C9429061A
:100040000C9429060C9429060C9429060C94290674
:100050000C9429060C94DD240C9429060C94290692
:100060000C9429060C9429060C9429060C94290654
:100070000C9429060C9429060C9429060C94290644
:100080000C9429060C9429060C9429060C94290634
:100090000C9429060C9429060C9429060C94290624
:1000A0000C9429060C9429060C94290681068406D2
:1000B00087068A068D068F069206FA08FF0804094D
:1000C00009090E09130918091D09220929094409FA
:1000D0004C098C09660C680C6A0C750C6C0C6E0C67
:1000E000700C720C740C770C790C7B0C860C7D0CEC
:1000F0007F0C810C830C850C960C880CA919A9190E
:10010000DB19DB19121A321A9B1BF91B741AF91B23
:10011000211B211B921BF91BF91BF31B2E1B2E1BF2
:100120002E1B2E1B2E1B2E1B2E1B2E1B2E1B2E1B87
:100130002E1B2E1B2E1B2E1B2E1B2E1B3F1B4C1B48
:10014000531B5A1B641B841C841C961C961C8D1C00
:10015000961C961C961C841C841C921C961C961C37
:10016000921C7C2FA32F9530A32F9530EF2F1230A8
:10017000953068307730556E69636F64653A205703
:10018000696E436F6D706F736500556E69636F6460
:10019000653A2057696E00556E69636F64653A2051
:1001A0004D616300556E69636F64653A204C696EFA
:1001B00075780073656C656374202A00245F003DC8
:1001C0003E003C3D003E3D00213D003D3D0065724E
:1001D000676F646F785F657A2F7265706C696361B1
:1001E0004A756E6374696F6E204020302E362E3152
:1001F00035302D362D676362316534352D64697273
:100200007479006D616B65206572676F646F785FEC
:10021000657A3A7265706C6963614A756E63746978
:100220006F6E3A7465656E737900290029612B0041
:10023000E100005700001E00140004001D00E30050
:100240004E001F001A0015461B00E1014C61200002
:10025000090016470600E2002A4221001300170099
:10026000074AE0004B00220005000A0019000000C8
:100270004A0035002F000000300000004D000553FB
:100280004C000000DD5C0000500023000D00100059
:100290000E0000004F0024000F0011000B00E600CC
:1002A000520025001800084836002D002C43260077
:1002B0001C000C493700340028642700330012006A
:1002C00038002E0051002E0031003400E5000258A5
:1002D0000000010001000100010001000000010018
:1002E000140004001D000100010001001A001600A6
:1002F0001B000100010001000800070006000100CA
:1003000001000100150009001900010001000100B1
:1003100017000A00050000000100010001000000B4
:10032000010000000100010001000000DD5C000090
:10033000500001001C000B00110000004F000100E4
:1003400018000D001000E600520001000C000E0025
:1003500036002D002C43010012000F00370034003E
:10036000286401001300330038002E0051002E00D5
:1003700001003400D75C02580000010001000100B8
:100380000100010000003A001E02200222020100CA
:1003900001003B001F0221022302240201003C0055
:1003A0002F0226022F00360201003D0030022702F4
:1003B0003000370201003E003800310231000000F9
:1003C0000100010001000000010000000100010027
:1003D000010000000100000001003F003302200284
:1003E0002A000000010040005F005C00590062002C
:1003F0000100410060005D005A00630004514200AA
:1004000061005E005B006700580043005400550027
:10041000560057000100440045002A002B0001004F
:1004200000000100010001000100010000003A008D
:100430000100E3000100010001003B000100E100B8
:100440000100010001003C006500E2000100010024
:1004500004513D003501E000160D010001003E0091
:10046000190D0100130D000001004400A900000057
:10047000AA0000000100450001000000010000008A
:1004800001003F004B004E00010000000100400051
:100490004A0050002B0201000100410052005100AF
:1004A0002B000100010042004D004F002B0801000D
:1004B000010043004C002A004900460001000100F1
:1004C000010076004600010000000100010001006B
:1004D00001000100000044000100E300F2000100FF
:1004E000010045000100E100F10001000100680089
:1004F000F400E200F000010001006900F500E000F6
:10050000F300010001006A00F600F900FA000000A3
:1005100001000100010000000100000001000100D5
:10052000010000000100000001006B00A900A8000C
:10053000AA00000001006C0042003E003A000100E9
:1005400001006D0043003F003B00010001006E0010
:10055000440040003C00010001006F0045004100E4
:100560003D00010001000100010001000100010047
:100570000000010029000100E1000100000001006D
:10058000010001000100010001000100010015004F
:1005900001000100E1000100010016000100E2007D
:1005A0002C000100010001000100E0000100010039
:1005B0000100010001000000010001000100000035
:1005C0000100000001000100010000000100000026
:1005D000F60001000100010001000000010001001F
:1005E0000100010001000100F50001000100080008
:1005F000010001002A00010001000C000100500070
:10060000280001000100010052005100F400010027
:100610000100010038004F0000000100010001004E
:1006200001000100000001000100010001000100C3
:1006300001000100010001000100010001000100B2
:10064000010024020100010001000100010031024B
:100650000100010001000100010001000100000093
:100660000100010001000000010000000100010084
:10067000010000000100000001000100330220021F
:100680002A00000001000100240021001E00620079
:1006900001000100250022001F0063000451010039
:1006A0002600230020006700580001005400550078
:1006B000560057000100010001002B00010001005D
:1006C0000000010001000100010001000000010024
:1006D0000100010001000100010001000100010012
:1006E0000100010001000100010001000100010002
:1006F00001000100010001000100010001000100F2
:1007000001000100010000000100010001000000E3
:1007100001000000010001000100000001000000D4
:1007200001000100A900A800AA00000001000100CA
:1007300042003E003A0001000100010043003F007A
:100740003B00010001000100440040003C000100AA
:1007500001000100450041003D00010001000100D1
:100760000100010001000100000001000100010082
:1007700001000100000001000100E15C0100010036
:10078000010001000100E05C010001000100010026
:10079000E65CE35C0100010001000100E55CE25C55
:1007A00001000100010001000100E45C0100000003
:1007B0000100010001000000010000000100010033
:1007C0000100000001000000010001000100010023
:1007D0000100000001000100010001000100010012
:1007E0000100010001000100010001000100010001
:1007F000010001000100010001000100DF5CDE5C7E
:1008000001000100010001000100010001000100E0
:1008100000000100010001000100010000000100D2
:100820001E02200222020100010001001F0221021B
:1008300023022402010001002F0226022F003602AB
:1008400001000100300227023000370201000100E0
:1008500038003102310000000100010001000000F9
:100860000100000001000100010000000100000083
:100870000100010001000100010000000100010071
:100880002D022D0035020100010001003500340069
:10089000340201000100010001000100010001001B
:1008A0000100010001000100010001000100010040
:1008B0000100010001000100000001000100010031
:1008C0000100010000000100010001000100010021
:1008D0000100010001000100010001000100010010
:1008E0000100010001000100010001000100E75CBE
:1008F00001000100010001000100010001000000F1
:1009000001000100010000000100000001000100E1
:1009100001000000010000000100010001000100D1
:1009200001000000010001000100010001000100C0
:1009300001000100E85C010001000100010001006C
:10094000E95C01000100010001000100EA5C010016
:10095000010001000100010001000100010001008F
:10096000000000000000000000002A2B280000000A
:10097000000000000000000000000000002900004E
:1009800000002C1E3420212224342627252E362D2B
:100990003738271E1F202122232425263333362EC5
:1009A00037381F0405060708090A0B0C0D0E0F1037
:1009B0001112131415161718191A1B1C1D2F31307C
:1009C000232D350405060708090A0B0C0D0E0F1020
:1009D0001112131415161718191A1B1C1D2F31305C
:1009E000354C000000000000000000000000000086
:1009F00000000000000000000000000000000000F7
:100A000000000001010101010100010101010000DC
:100A100000000000000000000000000001000100D4
:100A200001010101010101010101010101010101B6
:100A300001010101010101010101010101000000A9
:100A400001010000000000000000000000000000A4
:100A50000000000000000000000000000001010193
:100A60000100040330000000160345007200670017
:100A70006F0044006F007800200045005A0000001D
:100A800016034500720067006F0044006F00780095
:100A9000200045005A0000000403090409026D000B
:100AA000040100A0FA09040000010301010009216A
:100AB000110100012240000705810308000A090412
:100AC00001000103010200092111010001224D0072
:100AD0000705820308000A09040200010300000060
:100AE0000921110100012236000705830308000ACD
:100AF0000904030001030000000921110100012283
:100B000039000705840320000112011001000000D4
:100B100008EDFE071301000102030105010906A10A
:100B200001050719E029E7150025019508750181E0
:100B300002050819012905950575019102950175B0
:100B40000391010507190029F71500250195F8758E
:100B5000018102C005010980A1018502160100265C
:100B600003001A81002A8300751095018100C005D9
:100B70000C0901A1018503160100269C021A01003F
:100B80002A9C02751095018100C005010902A1018E
:100B90000901A1000509190129051500250195057F
:100BA0007501810295017503810105010930093143
:100BB0001581257F95027508810609381581257FE5
:100BC000950175088106050C0A38021581257F9567
:100BD0000175088106C0C005010906A101050719B4
:100BE000E029E71500250195087501810295017539
:100BF00008810105081901290595057501910295DE
:100C000001750391010507190029FF150026FF0052
:100C1000950675088100C00011241FBECFEFDAE0F1
:100C2000DEBFCDBF12E0A0E0B1E0E6E0F3E602C037
:100C300005900D92A832B107D9F723E0A8E2B2E0FF
:100C400001C01D92A13CB207E1F70E94642B0C94F5
:100C500081310C94000080B38C7080BB81B3836FB2
:100C600081BB089584B1807F84B985B1807F85B9C7
:100C70008AB1837F8AB98BB1837F8BB93E984698BE
:100C80000895CF93E82F873090F5809114019091CB
:100C90001501892B09F048C0CE2F64E670E080E48E
:100CA0000E94D6079093150180931401892BD1F4EB
:100CB00064E670E082E10E942D0890931501809314
:100CC0001401892B79F481E090E001C0880FCA9566
:100CD000EAF764E670E080950E942D089093150174
:100CE0008093140184E690E0CF910C94820890E008
:100CF000FC013797E730F105B8F4EA5AFF4F0C943E
:100D0000DD30209A289810C0219A29980DC0229A87
:100D10002A980AC0239A2B9807C0529A01C0539A66
:100D20005B9802C03E9A4698CF910895CF93873042
:100D300008F041C08091140190911501892B09F0B0
:100D400043C064E670E080E40E94D60790931501EA
:100D500080931401892B11F0C0E027C064E670E095
:100D600083E10E942D089093150180931401892B33
:100D700099F764E670E081E40E94D607909315012C
:100D800080931401892B41F784E690E00E945D086E
:100D900097FF05C09093150180931401DDCFC82FF4
:100DA000C095109215011092140184E690E00E9403
:100DB00082088C2F0AC09FB18FB1807F869586955F
:100DC0009370892B809501C080E0CF9108950C9499
:100DD000E6080E941D0A90E090931501809314018B
:100DE0000E9432060E942B0629E232E0EDE7F2E093
:100DF0004EE04E0F119280E090E0D901A80FB91F8C
:100E00001C92019686309105C1F72A5F3F4F4E1321
:100E1000F1CF0C94650B0E941D0A90E09093150190
:100E2000809314010E9432060E942B06EDE7F2E047
:100E30008EE08E0F11928E13FDCF089526E0829FD3
:100E4000C0011124FC01E75DFD4F20E030E080E0AF
:100E500041E050E09081992319F09150908307C0B0
:100E6000BA01022E01C0660F0A94EAF7862B2F5FA3
:100E70003F4F31962630310569F7089596E0699F16
:100E8000B001112420E030E090E04FE0FC01022EA0
:100E900002C0F595E7950A94E2F7E0FF06C0F90174
:100EA000E60FF71FE75DFD4F40832F5F3F4F263072
:100EB000310561F70895CF92DF92EF92FF920F9381
:100EC0001F93CF93DF938091140190911501892B8B
:100ED00091F0809128028F5F8093280281110BC0CE
:100EE0000E941D0A90E09093150180931401892BB4
:100EF00011F40E94AF098DE7C82E82E0D82E94E845
:100F0000E92E92E0F92EC0E08C2F0E94410607E006
:100F10000C0F802F0E9441068C2F0E941E07182F55
:100F20008C2F0E949606F6019081D12FD095D9235F
:100F30008123D82B6C2F8D2F89270E943E07F60125
:100F4000D1936F01802F0E941E07182F802F0E94BF
:100F50009606F7019081D12FD095D9238123D82BE4
:100F6000602F8D2F89270E943E07F701D1937F01C3
:100F70000E943206CF5FC73039F60E94710B81E0C4
:100F8000DF91CF911F910F91FF90EF90DF90CF9065
:100F90000895E82FF0E0E358FD4F8081089508950B
:100FA0001092B9008CE08093B8000895EF92FF9200
:100FB0000F931F93CF93DF93182FEB011092BC0078
:100FC00084EA8093BC000E94A7247C019091BC001D
:100FD00097FD0EC0CF3F8FEFD807C1F30E94A72423
:100FE0008E199F098C179D0788F38EEF9FEF2EC0F7
:100FF0009091B900987F983041F09091B900987F16
:10100000903119F08FEF9FEF21C01093BB0084E85F
:101010008093BC000E94A7248C019091BC0097FD96
:101020000CC0CF3F8FEFD807C1F30E94A724801BCD
:10103000910B8C179D0788F3D8CF8091B900887FDA
:10104000883111F08034F1F680E090E0DF91CF91AB
:101050001F910F91FF90EF9008950F931F93CF93DF
:10106000DF93EB018093BB0084E88093BC000E9477
:10107000A7248C019091BC0097FD0EC0CF3F8FEF4D
:10108000D807C1F30E94A724801B910B8C179D07E2
:1010900088F38EEF9FEF0CC02091B900287F81E08C
:1010A00090E0283211F480E090E0919581959109CB
:1010B000DF91CF911F910F9108950F931F93CF93BD
:1010C000DF93EC0184E88093BC000E94A7248C018C
:1010D0009091BC0097FD0EC0CF3F8FEFD807C1F3B2
:1010E0000E94A724801B910B8C179D0788F38EEF1D
:1010F0009FEF03C08091BB0090E0DF91CF911F91E3
:101100000F9108950F931F93CF93DF93EC0184E920
:101110008093BC000E94A7248C019091BC0094FF96
:101120000EC0CF3F8FEFD807C1F30E94A724801BCA
:10113000910B8C179D0788F38EEF9FEF02C080E024
:1011400090E0DF91CF911F910F910895CF93DF939E
:10115000EC0160914D0370914E0380914F0390918B
:1011600050030E94DE229881953020F0DF91CF91CC
:101170000C94890B933021F4813031F081E009C067
:10118000923059F4823021F4DF91CF910C94F42005
:1011900082E0DF91CF910C94D32082E00E94F42072
:1011A00083E00E94F42081E00E94F42089E20E9402
:1011B000E61789E2DF91CF910C94FF18089581E042
:1011C000089582E00E94D90F0C94DE080C94980ACE
:1011D0000F931F93CF93FC01EE5DFC45ED30F105BD
:1011E00008F0B2C08B01E35AFF4FDB011296CC919D
:1011F0000C94DD30C111AEC083E092E027C0C11174
:10120000A9C08EEC91E022C0C111A4C08BEC91E08A
:101210001DC0C1119FC088EC91E018C0C1119AC0D7
:1012200085EC91E013C0C11195C082EC91E00EC035
:10123000C11190C08FEB91E009C0C1118BC08CEB44
:1012400091E004C0C11186C083EB91E00E94620B63
:1012500081C0CC2309F47EC00E94E00F813049F0A8
:1012600058F0823071F0843009F073C086E791E065
:1012700005C084EA91E002C087E991E00E94620B18
:1012800068C08AE891E0FACFCC2309F463C089E210
:1012900091E00E94DF105DC0CC2309F45BC08FEAAF
:1012A00090E80E94C00F81E30E94E61781E30E944C
:1012B000FF1885EE0E94E6178DE20E94E6178DE288
:1012C0000E94FF1886E20E94E61786E20E94FF183D
:1012D00085EE0E94FF18B80184EC90EB0E94C00FCD
:1012E00085EE0E94E61787E20E94E61787E20E94D9
:1012F000FF188DE20E94E6178DE20E94FF1885EE2E
:101300000E94FF1888E30E94E61788E30E94FF18F6
:10131000B8018FEA90E815C0CC23E1F080EA9CE8A0
:101320000E94C00F85EE0E94E6178DE20E94E6172C
:101330008DE20E94FF1885EE0E94FF18B80180EA36
:101340009CE80E94C00F05C0CF911F910F910C9493
:10135000DF08C0E08C2FCF911F910F910895569810
:101360005E9825982D9826982E9827982F988FEF7D
:1013700090E0909389008093880090938B008093F5
:101380008A0090938D0080938C00259A2D9A2FEFE0
:1013900080E792E0215080409040E1F700C00000DB
:1013A000269A2E9A2FEF80E792E0215080409040BD
:1013B000E1F700C00000279A2F9A2FEF80E792E014
:1013C000215080409040E1F700C0000025982D9802
:1013D0002FEF80E792E0215080409040E1F700C07D
:1013E000000026982E982FEF80E792E02150804051
:1013F0009040E1F700C0000027982F9856985E981B
:1014000025982D9826982E9827982F98089589EA40
:101410008093800089E08093810024982C983F98E5
:101420008AB18F7C8AB96E98479A8BB180638BB9E9
:10143000769A0E94AF090C94E10880E290E09093C4
:1014400015018093140180918B0281110EC00E94BE
:10145000D00781E080938B022FEF83ED90E3215042
:1014600080409040E1F700C0000064E670E080E456
:101470000E94D6079093150180931401892B09F0DF
:1014800050C064E670E080E00E942D089093150142
:1014900080931401892B09F044C064E670E080E079
:1014A0000E942D089093150180931401892BC9F592
:1014B00064E670E08FE30E942D08909315018093FD
:1014C0001401892B71F584E690E00E94820864E69D
:1014D00070E080E40E94D607909315018093140178
:1014E000892BF9F464E670E08CE00E942D0890935B
:1014F000150180931401892BA1F464E670E080E06B
:101500000E942D089093150180931401892B49F4B2
:1015100064E670E08FE30E942D089093150180939C
:10152000140184E690E00E948208809114010895DD
:1015300060914D0370914E0380914F039091500341
:101540000E94DE2256985E988330B9F028F48823F2
:1015500041F0823059F008958430A1F08530A9F02F
:101560000895259A2D9A26982E9804C0259A2D9A8A
:10157000269A2E9A27982F980895259A2D9A26987C
:101580002E9807C0259A2D9A02C025982D98269A44
:101590002E9A279A2F9A089581E008950C94E808CE
:1015A000CF93282F30E0F901EE59F64FC491F9019D
:1015B000EE51F64F2491222359F081EE0E94E61756
:1015C0008C2F0E94E6178C2F0E94FF1881EE04C01A
:1015D0008C2F0E94E6178C2FCF910C94FF18FF924E
:1015E0000F931F93CF93DF93EC01F62E888188230E
:1015F00031F18E010F5F1F4F813031F4C9818C2F83
:101600000E94E6178C2F0AC0823029F489810E943B
:10161000E617E80108C0833021F489810E94FF1891
:10162000F8CF0E94D00A21968F2D8823F9F2EFE996
:10163000FFE03197F1F700C000008150F6CFDF9155
:10164000CF911F910F91FF90089560E00C94EF0AE5
:101650000F931F93CF93DF93EC01062FFE0184912C
:10166000882359F19E012F5F3F4F813041F4E901FA
:10167000F9011491812F0E94E617812F0DC082304D
:1016800031F4E901F90184910E94E6170AC0833020
:1016900031F4E901F90184910E94FF1802C00E940F
:1016A000D00A2196802F8823C9F2EFE9FFE0319715
:1016B000F1F700C000008150F6CFDF91CF911F916C
:1016C0000F91089560E00C94280B0E942E23811145
:1016D00006C00E943923811102C00E94A6230C94E7
:1016E000070A0E9451120C94E706282F2F7041F030
:1016F000822F90E02A3010F44D96089506970895B1
:1017000087E290E0089508950C94830B0C94840B69
:1017100008950E94721C0E94880B2FEF84E39CE0C6
:10172000215080409040E1F700C000000C94032558
:10173000DF92EF92FF920F931F93CF93DF9300D02E
:10174000CDB7DEB78C01FC01E080F1808091DB0237
:10175000811113C08281882349F0C7010E94CE21E4
:10176000D82E682FC7010E94712104C0C7010E94B2
:10177000A121D82EB7018D2D04C0C7010E94CE2112
:10178000B7010E94570D9A838983B80189819A8194
:101790000E94B311B801CE0101960E949E128823C7
:1017A00009F475C1B80189819A810E94CE0A882303
:1017B00009F46DC1B80189819A810E94F5118823CD
:1017C00009F465C1B80189819A810E94C00F8823FC
:1017D00009F45DC189819A818631FCE59F0739F55D
:1017E0000E949F22282FF801828140911701509179
:1017F0001801882379F02A7A91E009F490E0909317
:101800008C02911102C069E201C065E3CA010E9425
:1018100004240AC080918C02811102C069E201C0D7
:1018200065E3CA010E940F240E946C2230C18731F7
:101830002CE5920708F08AC08130ECE59E0759F448
:10184000F8011281112309F423C180917A03816088
:1018500080937A031CC18230FCE59F0758F4811500
:101860009C4559F4F8011281112309F411C10E9419
:10187000890B0DC185319C4550F081E08093910228
:1018800080939202C8010E94CC0A182F01C1F8016E
:1018900082818823B9F30E942E23811102C00E9405
:1018A000A6230E944B2390E09093B3038093B2034E
:1018B000E981FA81E250FC45E431F10508F03FC0CE
:1018C000E659FF4F8091B2030C94DD30816035C042
:1018D000826033C0846031C080612FC080622DC0BF
:1018E00080642BC0806829C08460886026C08E7F99
:1018F00024C08D7F22C08B7F20C08F7E1EC08F7D35
:101900001CC08F7B1AC08F7718C08B7F877F15C054
:1019100082FB222720F991E0292720FB82F983FB13
:10192000222720F9922790FB83F907C087FB222703
:1019300020F991E0922790FB87F98093B203809180
:10194000B2030E944F230E94721CA1C0883DFCE597
:101950009F0759F5F8018281882361F01092920265
:101960000E94A7249093900280938F0280E20E94AD
:1019700067198DC010919202112321F080E20E941C
:101980006E1985C080918F02909190020E94B324BD
:101990008A3F910598F780E20E946E1988E20E94C2
:1019A000E61788E20E94FF1873C0893D2CE5920774
:1019B00008F058C0863DECE59E0771F5F8011281EC
:1019C000112351F0109291020E94A72490938E024D
:1019D00080938D0282E0CBCF0E949F2285FF05C0BD
:1019E00081E0809391028093920280919102811113
:1019F0000FC080918D0290918E020E94B3248A3F85
:101A0000910530F486E20E94E61786E20E94FF18F4
:101A100082E00E946E193CC0873D9C4509F02DCFA5
:101A2000F801828181119ACF0E949F2281FF05C017
:101A300081E08093910280939202809192028111C1
:101A40009DCF80918F02909190020E94B3248A3F93
:101A5000910508F093CF87E20E94E61787E20E9483
:101A6000FF188CCF8B3D2CE5920731F4F8011281E1
:101A7000112371F080E009C08C3D9C4509F0FDCE3A
:101A8000F8011281112321F082E00E94002C10E065
:101A9000812F0F900F90DF91CF911F910F91FF90A9
:101AA000EF90DF90089580E090E00895089596E02B
:101AB000799FF001112494E5899FE00DF11D112417
:101AC000E60FF11DEE0FFF1FE65DFD4F859194912E
:101AD0000895880F991FFC01EE59F54F8591949157
:101AE0000895CF93DF930E94570D0E94200FEC01C1
:101AF000811520E59207F0F5811530E4930708F091
:101B000021C1883E910500F5803E910508F094C101
:101B1000883A910570F4853A910508F0A3C08130A8
:101B2000910509F489C108F440C1049708F084C103
:101B30003CC18D3B910508F4A0C0803C910508F4A0
:101B400034C1805C9109F0C08115904258F4C115F0
:101B500081E0D80708F070C1C03FD10508F425C165
:101B6000D0656AC1C11590E3D90708F0E1C0CE0184
:101B70009F70DAC0811525E5920708F043C08115F2
:101B800034E5930708F0F5C0811542E5940708F5A0
:101B9000C11581E5D80708F0D8C02C2F237081E04B
:101BA00090E002C0880F991F2A95E2F79C689E0179
:101BB00074E0369527957A95E1F72370922BCF70D4
:101BC000C695C69540E2C49FE0011124C82BD92BCD
:101BD00033C1869586959E0123703327C115D34561
:101BE00008F0B8C040E2849FC0011124C1E0D0E0F9
:101BF00002C0CC0FDD1F2A95E2F78C2B9D2BEC0148
:101C0000DC681AC181152AE5920798F4811539E537
:101C1000930708F0B9C08115964508F4AFC0C11507
:101C200088E5D80708F4C1C0DC2FCC27C06FD06A84
:101C300003C1C1159BE5D90708F4B7C0C1152CE550
:101C4000D20708F4AFC0CE0190568115904208F03B
:101C5000ACC08D2F8F710E949D0FDD27D0628F71D8
:101C6000D82BEAC0853A910509F4A2C0863A9105BD
:101C700009F0A1C0C2E8D0E4DFC0883A910509F4B8
:101C80009DC0893A910509F49CC08A3A910509F4EE
:101C90009BC08B3A910509F49AC08C3A910509F4DE
:101CA00099C08B3B910509F498C08C3B910509F4D0
:101CB00097C08D3A910509F496C0803B910509F4CF
:101CC00095C08E3A910509F494C08F3A910509F4B4
:101CD00093C0813B910509F492C0823B910509F4C0
:101CE00091C0833B910509F490C0843B910509F4B0
:101CF0008FC0853B910509F48EC0863B910509F4A0
:101D00008DC0873B910509F48CC0883B910509F48F
:101D10008BC0893B910509F48AC08A3B910509F47F
:101D200089C0C0E0D4E488C00E94690DEC0184C081
:101D3000CE019927D3FF03C0EC01D86C7DC0EC0124
:101D4000D06C7AC0DF70D06A77C0DC2FCC27C16F2F
:101D5000D06A72C040E2849FC0011124C1E0D0E08B
:101D600002C0CC0FDD1F2A95E2F7C82BD92BDA6809
:101D700063C0D82FCC27C46FD06A5EC0CF71DD2777
:101D8000DC2FCC27D06258C08F70806E90E0906AB4
:101D900024E0D695C7952A95E1F7CF709C013C2B9E
:101DA000E9014AC0DD27D06647C0C0E0D0E044C0AA
:101DB000C1E8D0E441C0C3E8D0E43EC0C2EED4E400
:101DC0003BC0C9EED4E438C0CAEED4E435C0C5EB9C
:101DD000D4E432C0C6EBD4E42FC0C3EBD4E42CC0AF
:101DE000C4EBD4E429C0C7EBD4E426C0CCECD4E4E3
:101DF00023C0CDECD4E420C0C3E8D5E41DC0CAE8BC
:101E0000D5E41AC0C2E9D5E417C0C4E9D5E414C0CA
:101E1000C1E2D6E411C0C3E2D6E40EC0C4E2D6E407
:101E20000BC0C5E2D6E408C0C6E2D6E405C0C7E2EE
:101E3000D6E402C0CAE2D6E4CE01DF91CF91089584
:101E40008238910549F1B0F48133910509F458C005
:101E500048F48932910509F44EC08A32910509F49B
:101E600054C008958533910509F440C08933910524
:101E700099F00895833E910529F138F4803E91054B
:101E800091F0823E9105A1F00895863E9105F9F00A
:101E9000873E910531F108952091B20320FD3AC0AB
:101EA00021FD38C008958091B20380FD35C032C055
:101EB0008091B20382FF32C08091B20384FD30C0B2
:101EC00083EE39C08091B20382FD28C0F5CF8091A6
:101ED000B20383FF27C08091B20384FD21C087EE47
:101EE0002AC08091B20383FD1DC0F5CF8091B2035B
:101EF00085FD1AC01BC08091B20385FD17C014C0B8
:101F00008091B20386FD14C015C08091B20386FD96
:101F100011C00EC080EE0FC089E30DC082EE0BC071
:101F200080E009C086EE07C089E205C085E303C0F2
:101F30008AE201C081E390E008959091B20392FF9C
:101F40000DC0282F2871283019F4877F846006C0BF
:101F5000282F2471243011F48B7F886093FF0DC0EB
:101F6000282F2871283119F4877E846106C0282F14
:101F70002471243111F48B7E886194FD877E08954D
:101F8000CF93DF93813020E8920778F0FB01228124
:101F9000222359F0EC010E94E30F0E94F10FCE01C1
:101FA0009F770E94B9100E946D1081E0DF91CF9160
:101FB000089580939402682F8CE090E00C944D314A
:101FC00080919402089580919302811109C08CE060
:101FD00090E00E943F318093940281E080939302CD
:101FE0000895E0911701F091180180818093AB036F
:101FF00081FF03C081EE0E94FF188091AB0385FF33
:1020000003C085EE0E94FF188091AB0380FF03C0E0
:1020100080EE0E94FF188091AB0384FF03C084EE22
:102020000E94FF188091AB0382FF03C082EE0E94E2
:10203000FF188091AB0386FF03C086EE0E94FF1855
:102040008091AB0383FF03C083EE0E94FF18809151
:10205000AB0387FF03C087EE0E94FF1880919402B4
:10206000823001F1A8F48823C9F0813079F580EE3F
:102070000E94E61781EE0E94E61788E10E94E617AB
:1020800088E10E94FF1881EE0E94FF1880EE1CC0BC
:10209000843081F08530D1F486EE01C082EE0E945A
:1020A000E61714C082EE0E94E61787E50E94E61745
:1020B00087E50AC086EE0E94E61786EE0E94FF18AA
:1020C00088E10E94E61788E10E94FF188FE39CE9EF
:1020D0000197F1F700C000000895809194028130CB
:1020E00049F030F0823021F0853051F486EE06C0A0
:1020F00082EE04C08CE20E94E6178CE20E94FF1878
:102100008091AB0381FF03C081EE0E94E6178091AE
:10211000AB0385FF03C085EE0E94E6178091AB03F9
:1021200080FF03C080EE0E94E6178091AB0384FF1E
:1021300003C084EE0E94E6178091AB0382FF03C0C8
:1021400082EE0E94E6178091AB0386FF03C086EE05
:102150000E94E6178091AB0383FF03C083EE0E94C9
:10216000E6178091AB0387FF03C087EE0C94E61758
:102170000895EF92FF921F93CF93DF937C01CCE001
:10218000D0E097010C2E02C0369527950A94E2F70D
:10219000122F1F70812F0E94750B0E94E617812F4E
:1021A0000E94750B0E94FF182497CC3F8FEFD80731
:1021B00041F7DF91CF911F91FF90EF9008956F92BB
:1021C0007F928F929F92AF92BF92CF92DF92EF92C7
:1021D000FF920F931F93CF93DF93CDB7DEB7CDB6AA
:1021E000DEB6009709F447C0FC012081222309F4E0
:1021F00042C09C0179012F5F3F4FF70180818032FF
:10220000C9F368E072E0C7010E9421318C01ADB6CC
:10221000BEB601962DB73EB7281B390B0FB6F89402
:102220003EBF0FBE2DBF8DB79EB701964C01A801D2
:10223000B7010E943031F401E00FF11F1082340128
:10224000F3018081882339F090E00E941931F30175
:1022500081933F01F5CF0E94F10FC4010E94250B2D
:102260000E946D10C701800F911F0FB6F894BEBE7B
:102270000FBEADBEB9CF0FB6F894DEBE0FBECDBE59
:10228000DF91CF911F910F91FF90EF90DF90CF9052
:10229000BF90AF909F908F907F906F900895CF9355
:1022A000DF93FC012785211116C0EC0181E08787AF
:1022B00087810E94A22288850E94B5220E946C22FA
:1022C000EA81FB816A897B89CE010696309719F0F5
:1022D000DF91CF910994DF91CF910895EF92FF9212
:1022E0000F931F93CF93DF93FC012085211134C0FE
:1022F000EC01E380F480F7E5FF1A24E12E9DC00194
:102300002F9D900D1124DC01A050BF4F1496ED912C
:10231000FC91159752966D917C9153978A5F9E4FD1
:10232000309709F0099584E18E9D80018F9D100DF5
:10233000112400501F4FF80187810E94A822F80144
:1023400080850E94BB220E946C2218821F821986FF
:102350001092960210929502DF91CF911F910F91EA
:10236000FF90EF900895DF92EF92FF920F931F93EB
:10237000CF93DF93FB012281222379F12091160173
:102380002F3F59F18C01C6E0D1E0E12CF12CDD2486
:10239000D39480911601082E000C990B8E159F0581
:1023A000E4F088818823A1F08B819C8108171907AC
:1023B00039F480919502909196020817190741F01F
:1023C000DF82CE0106970E944F11CE010E946E114E
:1023D000FFEFEF1AFF0A6496DCCFDF91CF911F91D8
:1023E0000F91FF90EF90DF900895EF92FF920F937F
:1023F0001F93CF93DF939C0137552F3F310511F089
:1024000008F047C040911601042E000C550B4217EE
:10241000530714F420931601FB017C01828194E19F
:10242000929F8001939F100D1124E801C050DF4F4F
:102430008E8792818E81992311F1FA86E9868F5FCA
:102440008E830E94A7249C878B870E94DB228F8328
:102450000E949F2288870E94B2229885892B8887B4
:10246000E881F9816A897B89C8018A5F9E4F30972C
:1024700009F00995F0929602E09295020AC088232D
:1024800041F08F85882329F0C8018A5F9E4F0E9402
:102490006E1181E0DF91CF911F910F91FF90EF902E
:1024A0000895CF92DF92EF92FF920F931F93CF93F5
:1024B000DF93809116018F3FC1F1C0E0D4E12C2F52
:1024C00030E080911601082E000C990B82179307BB
:1024D00064F1D29FF001D39FF00D1124E050FF4F23
:1024E000E088F188E114F10419F48AEFE82EF12C68
:1024F000D29F6001D39FD00C1124860100501F4F42
:10250000F8018681882379F0838594850E94B3241D
:10251000E816F90640F4C8010E944F11C6018A5F0F
:102520009E4F0E946E11CF5FCACFDF91CF911F9156
:102530000F91FF90EF90DF90CF9008954F925F92B0
:102540006F927F928F929F92AF92BF92CF92DF92C3
:10255000EF92FF920F931F93CF93DF937C01DC01E7
:10256000ED91FC91CF01815095458F3F910510F47D
:10257000B5E5FB27EB016A80662009F4BFC2EF3F97
:10258000F10579F070F0ED3DFC4519F010929702DD
:1025900073C39091970281E0892780939702A0E00E
:1025A0006CC3A0919702AA2309F4EBC01092970282
:1025B000E03CF10540F4E038F10508F073C0E03488
:1025C000F105D0F505C0EF3FF10509F008F4A0C012
:1025D00021E030E040E050E060E070E080E090E03A
:1025E0000E2F0E94E330B09198022B2BB0919902EC
:1025F0003B2BB0919A024B2BB0919B025B2BB0917D
:102600009C026B2BB0919D027B2BB0919E028B2B79
:10261000B0919F029B2B2093980230939902409394
:102620009A0250939B0260939C0270939D02809348
:102630009E0290939F02A1C021E030E040E050E074
:1026400060E070E080E090E08F01005411090E948A
:10265000E330B091A0022B2BB091A1023B2BB091A3
:10266000A2024B2BB091A3025B2BB091A4026B2B67
:10267000B091A5027B2BB091A6028B2BB091A70243
:102680009B2B2093A0023093A1024093A20250936F
:10269000A3026093A4027093A5028093A602909374
:1026A000A7026BC021E030E040E050E060E070E065
:1026B00080E090E08F01005811090E94E330B09152
:1026C000A8022B2BB091A9023B2BB091AA024B2B55
:1026D000B091AB025B2BB091AC026B2BB091AD0211
:1026E0007B2BB091AE028B2BB091AF029B2B209332
:1026F000A8023093A9024093AA025093AB026093C0
:10270000AC027093AD028093AE029093AF0235C0DD
:1027100021E030E040E050E060E070E080E090E0F8
:102720008F01005C11090E94E330B091B0022B2BA5
:10273000B091B1023B2BB091B2024B2BB091B302DE
:102740005B2BB091B4026B2BB091B5027B2BB09197
:10275000B6028B2BB091B7029B2B2093B002309323
:10276000B1024093B2025093B3026093B4027093EB
:10277000B5028093B6029093B702E701F983E8832C
:102780007CC2E034F105D0F4A0909802B090990298
:10279000E0909A02F0909B0210919C02D0919D02D1
:1027A000C0919E02B0919F0221E030E040E050E0F5
:1027B00060E070E080E090E00E2F5DC0E038F10551
:1027C000E8F4A090A002B090A102E090A202F090E4
:1027D000A3021091A402D091A502C091A602B091CB
:1027E000A70221E030E040E050E060E070E080E0EF
:1027F00090E06F0100E4C01AD1083CC0E03CF10554
:10280000E8F4A090A802B090A902E090AA02F0908B
:10281000AB021091AC02D091AD02C091AE02B0916A
:10282000AF0221E030E040E050E060E070E080E0A6
:1028300090E06F0100E8C01AD1081CC0A090B0025F
:10284000B090B102E090B202F090B3021091B402E5
:10285000D091B502C091B602B091B70221E030E04C
:1028600040E050E060E070E080E090E06F0100EC5C
:10287000C01AD1080C2D0E94E3304A2C42225B2C56
:1028800053227E2C74228F2C8522912E9622D723C0
:10289000C823B92321E030E040E050E060E070E080
:1028A00080E090E0E034F10510F40E2F0FC08F01AE
:1028B000E038F10518F40054110908C0E03CF105B6
:1028C00018F40058110902C0005C11090E94E3309D
:1028D00059016A017B018C019201472D582D692D08
:1028E0007D2F8C2F9B2F0E94FC3009F0C5C1E03C4E
:1028F000F10548F4E038F10508F084C0E034F10552
:1029000008F042C005C0EF3FF10509F008F4B8C077
:1029100021E030E040E050E060E070E080E090E0F6
:102920000E2F0E94E330209530954095509560958C
:10293000709580959095E09198022E23E0919902F0
:102940003E23E0919A024E23E0919B025E23E091A8
:102950009C026E23E0919D027E23E0919E028E23D5
:10296000E0919F029E232093980230939902409316
:102970009A0250939B0260939C0270939D028093F5
:102980009E0290939F0279C18F010054110921E0AA
:1029900030E040E050E060E070E080E090E00E94D5
:1029A000E3302095309540955095609570958095D1
:1029B0009095E091A0022E23E091A1023E23E091A8
:1029C000A2024E23E091A3025E23E091A4026E23B3
:1029D000E091A5027E23E091A6028E23E091A7025A
:1029E0009E232093A0023093A1024093A202509311
:1029F000A3026093A4027093A5028093A602909311
:102A0000A7023BC18F010058110921E030E040E0EE
:102A100050E060E070E080E090E00E94E3302095BC
:102A20003095409550956095709580959095E09182
:102A3000A8022E23E091A9023E23E091AA024E2390
:102A4000E091AB025E23E091AC026E23E091AD0217
:102A50007E23E091AE028E23E091AF029E2320936D
:102A6000A8023093A9024093AA025093AB0260934C
:102A7000AC027093AD028093AE029093AF02FDC0A2
:102A80008F01005C110921E030E040E050E060E09F
:102A900070E080E090E00E94E33020953095409512
:102AA00050956095709580959095E091B0022E2399
:102AB000E091B1023E23E091B2024E23E091B302D5
:102AC0005E23E091B4026E23E091B5027E23E09193
:102AD000B6028E23E091B7029E232093B00230937A
:102AE000B1024093B2025093B3026093B402709368
:102AF000B5028093B6029093B702BFC0EF3FF105D5
:102B000011F008F0B6C0E034F105D0F460909802FE
:102B10007090990280909A0290909B02D0919C02B2
:102B2000C0919D02B0919E0250909F0221E030E042
:102B300040E050E060E070E080E090E00E2F59C08F
:102B4000E038F105E0F46090A0027090A10280905E
:102B5000A2029090A302D091A402C091A502B091CC
:102B6000A6025090A70221E030E040E050E060E093
:102B700070E080E090E08F01005411093AC0E03C21
:102B8000F105E0F46090A8027090A9028090AA027A
:102B90009090AB02D091AC02C091AD02B091AE0268
:102BA0005090AF0221E030E040E050E060E070E0A3
:102BB00080E090E08F01005811091BC06090B002C6
:102BC0007090B1028090B2029090B302D091B402A2
:102BD000C091B502B091B6025090B70221E030E04A
:102BE00040E050E060E070E080E090E08F01005C49
:102BF00011090E94E3306222732284229522D62397
:102C0000C723B8235922E034F10550F421E030E025
:102C100040E050E060E070E080E090E00E2F17C0F0
:102C20008F01E038F10518F40054110908C0E03CA8
:102C3000F10518F40058110902C0005C110921E0E7
:102C400030E040E050E060E070E080E090E00E9422
:102C5000E33059016A017B018C01A1E09301A401D9
:102C60006D2F7C2F8B2F952D0E94FC3019F4A0E046
:102C700001C0A1E0A17001C0A62D8A2FDF91CF91E4
:102C80001F910F91FF90EF90DF90CF90BF90AF908A
:102C90009F908F907F906F905F904F90089590934A
:102CA000BD028093BC020895E091BC02F091BD0288
:102CB000309721F00190F081E02D099480E0089593
:102CC000E091BC02F091BD02309721F00280F381C7
:102CD000E02D09940895E091BC02F091BD02309777
:102CE00021F00480F581E02D099408952091BA0225
:102CF0003091BB028217930771F09093BB028093CF
:102D0000BA02E091BC02F091BD02309721F006803A
:102D1000F781E02D099408952091B8023091B9020D
:102D20008217930771F09093B9028093B802E091F3
:102D3000BC02F091BD02309721F00084F185E02DB6
:102D40000994089508950C94A21681E008950E94B4
:102D50009E2485B7806885BF85B7806885BF0E943F
:102D6000E9060C943525CF92DF92EF92FF920F93F4
:102D70001F93CF93DF93CDB7DEB72B970FB6F894A1
:102D8000DEBF0FBECDBF0E945B070E94A51681115A
:102D900011C08FEF89838A831B820E94A7248160E0
:102DA000782F9D838C8349815A816B818D810E940C
:102DB000971756C08FEBC82E82E0D82E00E010E0A7
:102DC000E02E802F0E94C907F60141916F01F42E79
:102DD000F82631F40F5F1F4F0E30110589F7D9CF58
:102DE00090917A0391FF04C08B870E94CF078B8557
:102DF00020E030E04F2D50E0922FBA01022E02C0A9
:102E0000759567950A94E2F760FF24C02E83EF82E0
:102E100021E030E0690102C0CC0CDD1C9A95E2F79C
:102E200090E08C219D21892B09F420E028870E94C5
:102E3000A7248160782F9A8789874E815F81688572
:102E40008A850E949717F801E154FD4F8081C826BA
:102E5000C08206C02F5F3F4F2630310569F6BACFDA
:102E60000E94C8261091BE020E9454161817A1F0A5
:102E70000E9454168093BE022B960FB6F894DEBFC4
:102E80000FBECDBFDF91CF911F910F91FF90EF90BB
:102E9000DF90CF900C94860B2B960FB6F894DEBF84
:102EA0000FBECDBFDF91CF911F910F91FF90EF909B
:102EB000DF90CF900895DC0111962C9111978C91A1
:102EC000682F70E041E050E001C0440F8A95EAF7B6
:102ED00012968C91129730E0882329F08091DD02C0
:102EE0008823E9F006C0F901E353FD4F9081942354
:102EF000B1F086E0829FF001839FF00D1124E60F70
:102F0000F71FEE0FFF1FE05AFE4F808191818D93D6
:102F10009C93F901E353FD4F8081482B06C0F901D2
:102F2000E353FD4F40958081482340830895CF931C
:102F3000DF93CDB7DEB72B970FB6F894DEBF0FBE89
:102F4000CDBF942F4F83252F588769877A878B872A
:102F50004A855B85452B21F02F3F09F59F3FF9F40A
:102F6000DE01119686E0FD0111928A95E9F785E070
:102F7000FE01379601900D928A95E1F749815A81B9
:102F80006B817C818D819E810E94411F2B960FB6A3
:102F9000F894DEBF0FBECDBFDF91CF910895CE0173
:102FA00007960E945B17DCCFFC01808191810E9413
:102FB0000D2292959F70963041F48091DD0291E050
:102FC00089278093DD029093DC020895CF93DF93ED
:102FD0001F92CDB7DEB7882309F40DC1682F823860
:102FE000C1F40E94541681FD06C169E38091170166
:102FF000909118010E9404240E946C222FEF81EE10
:1030000094E0215080409040E1F700C0000069E367
:1030100019C0833811F50E94541680FDECC063E599
:1030200080911701909118010E9404240E946C2243
:103030002FEF81EE94E0215080409040E1F700C0F6
:10304000000063E580911701909118010E940F2400
:103050000F90DF91CF910C946C228438C1F40E94C0
:10306000541682FDC8C067E4809117019091180141
:103070000E9404240E946C222FEF81EE94E02150E4
:1030800080409040E1F700C0000067E4DBCF8CEFA8
:10309000860F813A70F4862F69830E94FE28698129
:1030A0008111A9C080911701909118010E940424F8
:1030B000CFCF80E2860F883048F4677081E001C08E
:1030C000880F6A95EAF70E94A222C2CF8BE5860F8D
:1030D000833088F4653A29F0663A31F083E890E06D
:1030E00005C081E890E002C082E890E00F90DF9197
:1030F000CF910C94761688E5860F853108F071C063
:10310000683A61F1693A69F16A3A71F16B3A79F1B9
:103110006C3A81F16B3B89F16C3B91F16D3A99F11D
:10312000603BA1F16E3AA9F16F3AB1F1613BB9F19F
:10313000623BC1F1633BC9F1643BD1F1653BD9F11D
:10314000663BE1F1673BE9F1683BF1F1693BF9F17D
:103150006A3B09F43FC080E090E03EC082EE90E020
:103160003BC089EE90E038C08AEE90E035C085EB38
:1031700090E032C086EB90E02FC083EB90E02CC053
:1031800084EB90E029C087EB90E026C08CEC90E0C7
:1031900023C08DEC90E020C083E891E01DC08AE858
:1031A00091E01AC082E991E017C084E991E014C06F
:1031B00081E292E011C083E292E00EC084E292E0EC
:1031C0000BC085E292E008C086E292E005C087E28B
:1031D00092E002C08AE292E00F90DF91CF910C94CE
:1031E0008C16603F40F0862F0E94D0250F90DF9113
:1031F000CF910C94BD260F90DF91CF910895882335
:1032000009F464C0823879F40E94541681FF5EC0CC
:1032100069E380911701909118010E9404240E9493
:103220006C2269E310C08338B1F40E94541680FF09
:103230004DC063E580911701909118010E9404240C
:103240000E946C2263E580911701909118010E9401
:103250000F240C946C22843879F40E94541682FF57
:1032600035C067E480911701909118010E940424F1
:103270000E946C2267E4E7CF9CEF980F913A10F41C
:10328000682FE1CF90E2980F983050F4877091E06A
:1032900001C0990F8A95EAF7892F0E94A822D9CFF9
:1032A0009BE5980F933020F480E090E00C94761624
:1032B00098E5980F953120F480E090E00C948C16FE
:1032C000803F20F00E9438260C94BD260895882364
:1032D00021F00E94A2220C946C220895882321F0F0
:1032E0000E94A8220C946C2208958F929F92AF9214
:1032F000BF92DF92EF92FF920F931F93CF93DF93D2
:103300007C01D62FC72FFC01058102950F70128119
:1033100011110E94C2220E946522882379F0112394
:1033200069F080E28D0F883048F082E00E944E22E2
:103330000E94652291E0D82ED92601C0D12CAC2E56
:10334000A2948FE0A822B12CF501E258FF4F0C9413
:10335000DD308C2F807FCF70882311F0C295C07F25
:10336000112399F0CC2309F4C8C180E28D0F883075
:1033700010F0D11104C08C2F0E94A22203C08C2F08
:103380000E94B5220E946C22B8C18D2F0E94FF18A6
:10339000CC2309F42EC280E28D0F883010F0D111B9
:1033A00004C08C2F0E94A82203C08C2F0E94BB2235
:1033B0000E946C221EC28C2F807FCF70803211F051
:1033C000C295C07FDD2319F0D130C9F021C011238F
:1033D00071F0002341F0013031F40E94DB228C2B8C
:1033E0000E94D52206C20E94DB228C2B3FC1002303
:1033F00019F0013009F4FDC10E94D82211C0112337
:1034000021F0023008F0F5C107C00111F2C108C077
:10341000112321F0011171C18C2F28C101117EC12E
:103420008C2F2AC18C2F86958695837090E000970B
:1034300019F0019761F0DDC1112321F08D2F9C2F30
:10344000937002C080E090E00E947616E2C11123E2
:1034500021F08D2F9C2F937002C080E090E00E949D
:103460008C16D7C11123F9F0D53F51F0D63F71F03A
:10347000D43FA9F48091AC039091AD0381600BC05F
:103480008091AC039091AD03826005C08091AC0344
:103490009091AD0384609093AD038093AC038D2F26
:1034A0000E94D0251EC0D53F51F0D63F71F0D43FC9
:1034B000A9F48091AC039091AD038E7F0BC08091F5
:1034C000AC039091AD038D7F05C08091AC039091CA
:1034D000AD038B7F9093AD038093AC038D2F0E943F
:1034E00038260E94BD2695C18C2F837009F050C0EC
:1034F00011118BC18D2F829586958770880F880F4B
:103500009D2F9F70892E912CA12CB12C082E04C0C8
:10351000880C991CAA1CBB1C0A94D2F7D4FF14C0B7
:103520000FE010E020E030E0B901A80104C0440F32
:10353000551F661F771F8A95D2F7CB01BA01609598
:1035400070958095909503C060E070E0CB01C695C2
:10355000C695C370D0E0C230D10561F0C330D1054B
:1035600081F0682979298A299B29219771F00E9485
:1035700086204BC1682979298A299B290E94982095
:1035800044C10E948620C501B4010E9474203DC13F
:10359000112319F08C2F817001C08695882309F4BE
:1035A00034C18D2F829586958770880F880F9D2F47
:1035B0009F70892E912CA12CB12C082E04C0880C50
:1035C000991CAA1CBB1C0A94D2F7D4FF14C00FE0AC
:1035D00010E020E030E0B901A80104C0440F551FFD
:1035E000661F771F8A95D2F7CB01BA016095709557
:1035F0008095909503C060E070E0CB01C695C695BC
:10360000C3704C2F50E04230510569F043305105F2
:1036100089F0682979298A299B294130510571F05F
:103620000E944C21F2C0682979298A299B290E948D
:103630005E21EBC00E944C21C501B4010E943A21D9
:10364000E4C08D2F90E0FC01E05EF109E531F10569
:1036500008F04FC0E257FF4F0C94DD30DF708C2F25
:103660008F71112331F00E94D3208D2F0E94671992
:10367000C0C00E94F4208D2F0E946E19BAC0112381
:1036800039F00111B6C08C2F8F710E941921B1C081
:10369000023008F0AEC0F7CF112339F08C2F8F71B4
:1036A0000E94D320A6C01123C9F38C2F8F710E94D2
:1036B000F4209FC0112329F08C2F8F710E94BE200F
:1036C00098C00E94B92095C0112349F0CF718C2F6A
:1036D0000E94D32063E08C2F0E9445228AC081E0A3
:1036E0000E944E22023008F484C082E00E944E22E2
:1036F00080C0112331F0002389F28D2F0E94E6173C
:1037000078C0002391F2D93349F45FEF67EE73E09C
:10371000515060407040E1F700C000008D2F0E94C2
:10372000FF1867C04C2F4F706D2FC7010E94530DBB
:103730000E94E51F6EC0D23FB1F028F4D03F49F09F
:10374000D13FF9F028C0D43FB9F058F0D53F71F01F
:1037500022C0112309F447C09091DD0281E089273E
:1037600008C081E018271093DD023DC011113BC055
:1037700081E08093DD0237C0111135C01092DD0267
:1037800032C0112329F08091DC02882329F329C05B
:10379000002311F328C08091DC020023C1F08823AC
:1037A00041F09091DD0281E089278093DD02109243
:1037B000DC028D2F112319F00E94E61714C00E941D
:1037C000FF1886E0F70111928A95E9F70CC088236B
:1037D00051F0111108C09091DD0281E0892780939A
:1037E000DD021092DC024C2F4F706D2FC7010E943A
:1037F000560DF8E0AF16B10441F05CF04AE0A41AAF
:10380000B10852E0A516B10420F40E9454160E949B
:10381000860BDD20E1F00E94412280FD18C0F701F7
:1038200012820E943B220E94D320C7010E94331CB7
:103830000E943B22DF91CF911F910F91FF90EF905B
:10384000DF90BF90AF909F908F900C94F420DF9109
:10385000CF911F910F91FF90EF90DF90BF90AF90AD
:103860009F908F9008950F931F93CF93DF93EC0158
:10387000888199812B813C81232BB9F09F3F11F4E2
:103880008F3F99F0CE010E94980B882371F06881D8
:1038900079818A810E9418228C010E9470210E94E5
:1038A0007120B801CE010E947519DF91CF911F914F
:1038B0000F9108950E94C2220E94D2228091170186
:1038C000909118010E941A240E946C220E94632782
:1038D0000E94BD2680E090E00E94761680E090E095
:1038E0000C948C160E94AF220C945A1C0E940D223C
:1038F000E92FE295EF70F0E03297EE30F105B0F489
:10390000ED55FF4F0C94DD30803F91F018F4803E70
:1039100068F40EC0843F51F40BC0803E48F0813FF4
:1039200029F406C093FB882780F9089580E0089564
:1039300081E00895CF93DF9300D000D01F92CDB7E0
:10394000DEB70F900F900F900F900F90DF91CF91F7
:103950000895CF93DF9300D000D000D0CDB7DEB76D
:1039600026960FB6F894DEBF0FBECDBFDF91CF9184
:1039700008951F93CF93DF93C091DE0216E08091EC
:10398000DF02C81799F0D0E01C9FF0011D9FF00DD9
:103990001124E052FD4F4081518162817381848105
:1039A00095810E94A91C2196C770E9CFDF91CF9124
:1039B0001F910895409110035091110360911203DB
:1039C0007091130380911403909115030C94A91C1A
:1039D0002091DE029091DF0256E02917A9F030E035
:1039E000529FF001539FF00D1124E052FD4F718161
:1039F000671306C07081871303C07281471306C026
:103A00002F5F3F4F2770E9CF80E0089581E0089550
:103A10008091150382958F7009F054C08091120334
:103A2000882309F44FC08091DE02A091DF026091EB
:103A30001003709111034091130350911403B6E0E9
:103A40008A1709F43FC090E041155105C1F17F3F4D
:103A500011F46F3FA1F1B89FF001B99FF00D11244F
:103A6000E052FD4F218172132AC02081621327C0CA
:103A70002281211124C0238134812417350710F4B9
:103A800021503109241B350B2A3F3105C0F4209108
:103A900015032F7020612093150326E0289FF00165
:103AA000299FF00D1124EB51FD4F80818F708061B3
:103AB000808380E193E00E94331C0C94B91C019632
:103AC0008770BECF0895AF92BF92CF92DF92EF92F0
:103AD000FF920F931F93CF93DF93CDB7DEB762971B
:103AE0000FB6F894DEBF0FBECDBF7C0185E0F701B5
:103AF000DE011D9601900D928A95E1F7D7010C9198
:103B000011965C9111971296BC9012971396CD90D6
:103B1000DC901497309110034091110380911303AE
:103B200090911403009709F47DC14F3F19F43F3F72
:103B300009F478C1A0901203AA2009F40DC12091C4
:103B40001503C816D90628F0F601E81BF90BCF01BA
:103B500004C0809590958C0D9D1D11E08A3F9105C4
:103B600088F010E0207F09F0BEC07C2DD98AC88A79
:103B7000402F6B2D89890E949A1C80E193E00E945E
:103B8000331C48C1822F807F09F075C0451314C0D3
:103B9000301312C0B11010C02F7020612093150394
:103BA0000E94DA1C80E193E00E94331C809115038F
:103BB000D70115968C9320C0CD2809F452C05F3FE1
:103BC00019F40F3F09F44DC0B11018C040E0652F43
:103BD000802F5A8B0E94E81C5A89882379F080E153
:103BE00093E00E94331CE0E1F3E086E0DF011D92E8
:103BF0008A95E9F70E94DA1C10E031C15F3F11F4A9
:103C00000F3F79F1B1102DC040E0652F802F5A8B06
:103C10000E94E81C182F5A89811123C00D875E87E6
:103C20008D859E850E940D22292F22952F7030E0D0
:103C30002230310524F02430310534F05EC09F700D
:103C400051F0811108C00BC19F7029F0F7019581D7
:103C5000907F09F404C190E2980F983008F04DC0AD
:103C6000FEC01B2DBB2009F4FAC0809115038160B2
:103C700080931503C1CF451308C0301306C0B1109F
:103C800004C080911503D7019DC00D875E878D8587
:103C90009E850E94761C882381F1BB2071F12091C2
:103CA0001503822F82958F7090E0029774F08091B7
:103CB00010039091110398878F831986DB86CA863B
:103CC0002C87CE0107960E94331C86E0F701A0E105
:103CD000B3E001900D928A95E1F70E94081D0E94C1
:103CE000DA1C11E0BCC0451761F00D875E878D8539
:103CF0009E850E94761C811118C0C7010E94331C4A
:103D0000F0CF3013F2CFB110F0CF80911503F7014F
:103D10008583C7010E94331C86E0E0E1F3E0DF0108
:103D20001D928A95E9F71A2D9AC0BB2031F3209194
:103D30001503822F82958F7090E0029734F2809164
:103D40001003909111039A8389831B82DD82CC82B8
:103D50002E83CE010196B7CFC816D90628F0F601FA
:103D6000E81BF90BCF0104C0809590958C0D9D1D2B
:103D70008A3F910550F010E07C2DD98AC88A402FE7
:103D80006B2D89890E949A1C45C01B2DBB2009F40C
:103D9000B4CF45132EC030132CC02091150320FD45
:103DA0001FC0822F82958F70D9F0D70115962C9362
:103DB00015978F3049F08F5F982F9295907F822FC3
:103DC0008F70892B15968C93C7010E94331C86E057
:103DD000F701A0E1B3E001900D928A95E1F73DC0B3
:103DE00086E0F701A0E1B3E001900D928A95E1F73A
:103DF00036C00D875E878D859E850E94761C811159
:103E000064CF80911503816080931503C7010E94E0
:103E1000331C25C0E0E1F3E086E0DF011D928A95C6
:103E2000E9F71BC0BB2009F468CF0D875E878D853D
:103E30009E850E94761C182F882309F45ECF86E0A9
:103E4000F701A0E1B3E001900D928A95E1F780E1DE
:103E500093E00E94D4170E94081D0E94DA1C812F53
:103E600062960FB6F894DEBF0FBECDBFDF91CF9143
:103E70001F910F91FF90EF90DF90CF90BF90AF9088
:103E800008951F93CF93DF93CDB7DEB72C970FB66E
:103E9000F894DEBF0FBECDBF4F83588769877A87FE
:103EA0008B879C87CE0107960E94631D882369F04B
:103EB0008F8198852A853B85232BF1F19F3F09F05F
:103EC00063C08F3F09F060C037C086E0FE013796BF
:103ED000DE01119601900D928A95E1F76F81788548
:103EE000EA85FB85309741F17F3F11F46F3F21F167
:103EF0002091DF0230E0C901019687709927409137
:103F0000DE0250E08417950709F447C069837A837D
:103F1000FD83EC8396E0929FD001939FB00D112416
:103F2000A052BD4FFE01319601900D929A95E1F796
:103F30008093DF020E94B91C16E08091DE0290910E
:103F4000DF028917C1F1189FC001112480529D4FD3
:103F50000E94631D882379F1E091DE021E9FF0012B
:103F60001124E052FD4F408151816281738184812F
:103F700095810E94A91C8091DE0290E001968770D5
:103F800099278093DE02D9CF4F81588569857A853C
:103F90008B859C850E94A91CCFCF0E94721C109219
:103FA000DF021092DE02E0E1F3E086E0DF011D9225
:103FB0008A95E9F7C1CF2C960FB6F894DEBF0FBEF5
:103FC000CDBFDF91CF911F910895EF92FF920F9394
:103FD0001F93CF93DF938C01892B09F46CC0F12CD4
:103FE000EE24E394E8012196F8018491843740F4AB
:103FF000843008F051C0813081F0823019F15BC00B
:10400000853709F444C0A8F19CE7980F903708F071
:1040100052C08F770E94FF1841C00E5F1F4FFE01F4
:10402000C49180E28C0F883048F4C7708E2D01C097
:10403000880FCA95EAF70E94C52214C08C2F0E94EF
:10404000E6172DC00E5F1F4FFE01C49180E28C0F5A
:10405000883058F4C7708E2D01C0880FCA95EAF7D2
:104060000E94CB220E946C221AC08C2F0E94FF1843
:1040700016C00E5F1F4FFE01C491CC2381F08FE963
:104080009FE00197F1F700C00000C150F6CF0E5F2E
:104090001F4FFE01F49003C00E94E6178E018F2D82
:1040A000882309F49FCFEFE9FFE03197F1F700C0D3
:1040B00000008150F5CFDF91CF911F910F91FF90BC
:1040C000EF90089508950C9462200E9463206093FD
:1040D00051037093520380935303909354030C94B1
:1040E0005A1C08950C9465200F931F93009151035F
:1040F000109152032091530330915403602B712B84
:10410000822B932B1F910F910C9465200F931F937B
:1041100000915103109152032091530330915403A5
:1041200060237123822393231F910F910C946520A8
:104130000F931F9300915103109152032091530349
:104140003091540360277127822793271F910F9185
:104150000C94652008950C94AA200E94AB206093D3
:104160004D0370934E0380934F03909350030C9430
:104170005A1C60E070E0CB010C94AD200F931F93AC
:1041800041E050E060E070E08A019B0104C0000F54
:10419000111F221F331F8A95D2F7C901B8011F9141
:1041A0000F910C94AD200F931F9341E050E060E01D
:1041B00070E004C0440F551F661F771F8A95D2F721
:1041C00080914D0390914E03A0914F03B091500305
:1041D0008A019B01082B192B2A2B3B2BC901B80103
:1041E0001F910F910C94AD200F931F9341E050E06D
:1041F00060E070E004C0440F551F661F771F8A956A
:10420000D2F7409550956095709580914D039091AF
:104210004E03A0914F03B09150038A019B010823E4
:1042200019232A233B23C901B8011F910F910C9434
:10423000AD200F931F9341E050E060E070E004C0B8
:10424000440F551F661F771F8A95D2F780914D0343
:1042500090914E03A0914F03B09150038A019B01AE
:10426000082719272A273B27C901B8011F910F9159
:104270000C94AD200F931F9300914D0310914E03AA
:1042800020914F0330915003602B712B822B932B85
:104290001F910F910C94AD200F931F9300914D032C
:1042A00010914E0320914F033091500360237123EE
:1042B000822393231F910F910C94AD200F931F9392
:1042C00000914D0310914E0320914F033091500304
:1042D00060277127822793271F910F910C94AD209F
:1042E0000895292F220F920F990F890FA82FA695B5
:1042F000A695A695877051E001C0550F8A95EAF7FB
:1043000085E0A89FD001112420E030E070E0F901A1
:10431000EA0FFB1FEA5EFC4F4081CB01022E02C078
:10432000969587950A94E2F781709927819584275D
:104330008523842780832F5F3F4F2530310539F750
:104340000895292F220F920F990F890F682F6695D4
:1043500066956695982F977085E0689FB001112447
:1043600040E050E080E0FA01E60FF71FEA5EFC4F04
:10437000208130E0092E02C0369527950A94E2F795
:1043800021703327042E01C0220F0A94EAF7822BF2
:104390004F5F5F4F4530510531F70895CF92DF925F
:1043A000EF92FF920F931F93CF93DF938C01C090F6
:1043B0005103D0905203E0905303F0905403809146
:1043C0004D0390914E03A0914F03B0915003C82A22
:1043D000D92AEA2AFB2ACFE1D0E0D701C6010C2E68
:1043E00004C0B695A795979587950A94D2F780FF54
:1043F00006C0B8018C2F0E94710D019721F42197FE
:1044000060F780E001C08C2FDF91CF911F910F9159
:10441000FF90EF90DF90CF900895CF93DF93EC0162
:104420000E94CE21BE010E94710DDF91CF910895AF
:104430001F93CF93DF93EB019091DB02992321F03F
:10444000CB010E940D2213C0882349F0CB010E94AA
:10445000CE21182F682FCE010E94712104C0CB01FC
:104460000E94A121182FBE01812F0E94710DDF91A2
:10447000CF911F91089580915503859585958595D8
:104480000895809155038770089598E0899F900161
:104490001124262B209355030C94D32020915503EF
:1044A0008095822380935503982F977069F430E0AC
:1044B000482F082E000C550B2417350729F0859539
:1044C000859585950C94F4200895909155039770E7
:1044D00081E009F480E00895E0911701F09118015E
:1044E000809179038083E0911701F0911801908108
:1044F00080917803892B8083E0911701F091180156
:10450000908180917703892B808380915603882343
:1045100081F0E0911701F09118019081892B80833F
:1045200080911701909118010E94A8238111109287
:10453000560380911701909118010C946016809198
:104540007903089590917903892B809379030895D5
:10455000809590917903892380937903089510922F
:104560007903089580917803089590917803892BB9
:1045700080937803089580959091780389238093A0
:104580007803089510927803089590917703892B0A
:104590008093770308958095909177038923809382
:1045A0007703089510927703089580935603089532
:1045B000109256030895809156030895CF92DF928A
:1045C000EF92FF926C01EE24FF24C114D104E104A8
:1045D000F10421F0C701B60120E101C020E0C72E9F
:1045E000D82EE92EFF24C114D104E104F10419F0FE
:1045F000285FC701B6016B017C0154E0F694E79493
:10460000D794C7945A95D1F7C114D104E104F104A9
:1046100019F02C5FC701B6016B017C0142E0F694F2
:10462000E794D794C7944A95D1F7C114D104E10413
:10463000F10419F02E5FC701B601DC01CB01B6957C
:10464000A79597958795892B8A2B8B2B09F02F5F40
:10465000822FFF90EF90DF90CF90089580E090E060
:104660000E94473121E08D3E9E4F09F020E0822FCD
:10467000089580E090E00E94473121E0019609F022
:1046800020E0822F089582E090E00C943F3183E097
:1046900090E00C943F3184E090E00C943F31682F1F
:1046A00084E090E00C944D31AB01BC018FE090E0D0
:1046B0000C945F31AB01BC0183E190E00C945F315D
:1046C00060E070E0CB010C945A2360E070E0CB0115
:1046D0000E9454230C9460236DEE7EEF80E090E006
:1046E0000E946B3160E082E090E00E944D3160E01A
:1046F00083E090E00E944D311092510310925203DA
:10470000109253031092540360E084E090E00E9402
:104710004D3160E085E090E00E944D3160E086E040
:1047200090E00E944D316FEF87E090E00E944D31A4
:1047300040E050E0BA0188E090E00E945F3160E024
:104740008DE090E00E944D310C9465230C946C2315
:10475000FC0131969C01205E3F4F80E091919111C8
:104760008F5FE217F307D1F708959C01FC013296A1
:104770009FEF80E04191461789F09F3F19F4411166
:1047800001C0982F8F5F8E31A9F79F3F39F0F90153
:10479000E90FF11D97FDFA95628308950895FC01D4
:1047A000329680962081261301C010823196E81738
:1047B000F907C1F70895262F2695269526952F31BE
:1047C00068F4FC01E20FF11D677021E030E001C0E8
:1047D000220F6A95EAF78181282B21830895262FDD
:1047E0002695269526952F3170F4FC01E20FF11DD8
:1047F000677021E030E001C0220F6A95EAF720954A
:10480000818128232183089520912801222329F0E2
:104810002091B20327FD0C94DB230C94B523209147
:104820002801222329F02091B20327FD0C94EF23C5
:104830000C94CF23FC01319680961192E817F9076A
:10484000E1F7089508950C9422240E942324809176
:10485000B803843049F110927B0320E488E190E0B2
:104860000FB6F894A895809360000FBE2093600067
:1048700080E00E94860B0E94232483B7817F84609E
:1048800083BF83B7816083BF7894889583B78E7F19
:1048900083BF0FB6F894A8958091600088618093DB
:1048A0006000109260000FBE08950895CF930E949B
:1048B0000B070E945B070E945524C0E08C2F0E94CA
:1048C000C907811104C0CF5FCE30C1F701C081E0BC
:1048D000CF91089508950C946A240E94721C0E943E
:1048E00054160E94860B0C946B241F920F920FB6E5
:1048F0000F9211248F939F93AF93BF9380917B036B
:10490000811113C08091AE039091AF03A091B003C9
:10491000B091B1034196A11DB11D8093AE03909358
:10492000AF03A093B003B093B103BF91AF919F9138
:104930008F910F900FBE0F901F90189582E084BD4D
:1049400093E095BD9AEF97BD80936E0008952FB7C1
:10495000F8948091AE039091AF03A091B003B09111
:10496000B1032FBF0895CF92DF92EF92FF920F9382
:104970001F932FB7F8944091AE035091AF0360910D
:10498000B0037091B1032FBF6A017B01EE24FF24B5
:104990008C0120E030E0C016D106E206F30610F4E8
:1049A000415051099A01281B390BC9011F910F91E0
:1049B000FF90EF90DF90CF90089578941F920F9220
:1049C0000FB60F9211248F939F93AF93BF93809153
:1049D000AE039091AF03A091B003B091B1030196E3
:1049E000A11DB11D8093AE039093AF03A093B003BC
:1049F000B093B103BF91AF919F918F910F900FBE74
:104A00000F901F901895F89481E08093E00080E269
:104A10008093D800E9ECF0E010828FE19EE40197EA
:104A2000F1F700C000001DBA109268001CBC10BE57
:104A30001FBA10927A0010926E0010926F001092BE
:104A40007100109272001082ECEBF0E0108214B84A
:104A500017B81AB81DB810BA108215B818B81BB814
:104A60001EB811BA0C94003F08950E942E238111A4
:104A700002C00E94A6230E94432380937A030E94CF
:104A80004B2390E09093B3038093B2030E9447239B
:104A9000682F70E080E090E00C94722080917F039A
:104AA00080FF0BC060911C0185E0689FB00111245C
:104AB00075956795759567952BC081FF09C06091C5
:104AC0001C0185E0689FB00111247595679520C091
:104AD00082FF07C060911C0185E0689FB00111242E
:104AE00017C0909180039923D1F060911B01961714
:104AF00088F720911C0185E0289F90011124929F46
:104B0000A001939F500D112470E0CA010E94C9308A
:104B10006038710540F46115710539F002C065E037
:104B200070E0862F08958FE7089581E008958091C1
:104B30007F0380FF08C060911A0170E0759567954A
:104B40007595679521C081FF06C060911A0170E0DC
:104B50007595679519C082FF04C060911A0170E0D5
:104B600010C0909180039923C1F0609119019617AC
:104B7000A0F780911A01899FC001112470E00E9462
:104B8000C9306038710528F46115710521F0862F50
:104B900008958FE7089581E0089561E070E0F4CF13
:104BA000803F21F40E944E25819504C0813F29F465
:104BB0000E944E25809383030895823F21F40E9432
:104BC0004E25819504C0833F29F40E944E25809391
:104BD00082030895893F19F40E94972505C08A3FF2
:104BE00031F40E94972581958093840308958B3F2B
:104BF00021F40E949725819504C08C3F29F40E94DE
:104C00009725809385030895843F21F48091810343
:104C1000816017C0853F21F480918103826011C0BB
:104C2000863F21F48091810384600BC0873F21F48B
:104C300080918103886005C0883F31F480918103B1
:104C400080618093810308958D3F21F480917F03DB
:104C500081600BC08E3F21F480917F03826005C08C
:104C60008F3F29F480917F03846080937F030895B0
:104C7000803F39F48091830387FF6CC010928303D7
:104C800069C0813F29F4809183031816BCF362C088
:104C900090918203823F29F497FF5CC010928203B7
:104CA00059C0833F19F41916CCF354C0893F41F41D
:104CB0008091840318160CF04DC0109284034AC0F2
:104CC0008A3F29F48091840387FF44C0F6CF8B3F4D
:104CD00039F48091850387FF3DC0109285033AC067
:104CE0008C3F29F4809185031816BCF333C0843FB0
:104CF00021F4809181038E7F17C0853F21F480913C
:104D000081038D7F11C0863F21F4809181038B7FC9
:104D10000BC0873F21F480918103877F05C0883FC6
:104D200031F4809181038F7E8093810313C08D3F86
:104D300021F480917F038E7F0BC08E3F21F4809100
:104D40007F038D7F05C08F3F29F480917F038B7F88
:104D500080937F038091820381110EC08091830331
:104D600081110AC080918403811106C0809185035E
:104D7000811102C010928003089581E893E00E949F
:104D80006B160E94A72490937D0380937C03089563
:104D90001F93CF93DF9380917C0390917D030E94BA
:104DA000B324AC0190918003992321F020911D013F
:104DB00030E006C020917E038AE0289F90011124F4
:104DC0004217530708F47BC080918203C09183038C
:104DD000D091840310918503811107C0C1116BC06C
:104DE000D11169C0111167C06AC09F3F19F09F5F60
:104DF00090938003181624F40E944E25809382031A
:104E00008091820387FF05C00E944E258195809383
:104E100082031C1624F40E944E2580938303809104
:104E2000830387FF05C00E944E25819580938303ED
:104E3000309182033323E1F0209183032223C1F0D8
:104E400045EB3403C0011124892F990F990B00976A
:104E500009F481E08093820335EB2303C001112420
:104E6000892F990F990B009709F481E080938303B0
:104E70001D1624F40E949725809384038091840357
:104E800087FF05C00E9497258195809384031116A2
:104E900024F40E949725809385038091850387FFE2
:104EA00005C00E949725819580938503DF91CF915E
:104EB0001F910C94BD269F3F09F099CFA1CFDF91A0
:104EC000CF911F910895E1E8F3E085E0DF011D92A5
:104ED0008A95E9F71092800310927F03089583303A
:104EE00081F128F4813059F08230D1F00895853075
:104EF00009F449C0B8F1863009F456C0089580918C
:104F00007E03262F30E0280F311D2F3F310524F47A
:104F1000680F60937E0308958FEF80937E0308955A
:104F200080911D01262F30E0280F311D2F3F3105C4
:104F300024F4680F60931D0108958FEF80931D0185
:104F4000089580911C01262F30E0280F311D2F3F3E
:104F5000310524F4680F60931C0108958FEF80934E
:104F60001C01089580911B01262F30E0280F311D70
:104F70002F3F310524F4680F60931B0108958FEFD4
:104F800080931B01089580911A01262F30E0280F8D
:104F9000311D2F3F310524F4680F60931A010895E5
:104FA0008FEF80931A01089580911901262F30E028
:104FB000280F311D2F3F310524F4680F609319012C
:104FC00008958FEF809319010895833011F128F42B
:104FD000813049F0823091F00895853081F120F1DF
:104FE0008630C1F1089580917E03681720F4861BF6
:104FF00080937E03089510927E03089580911D0191
:10500000681720F4861B80931D01089510921D01DE
:10501000089580911C01681720F4861B80931C0161
:10502000089510921C01089580911B01681720F4C7
:10503000861B80931B01089510921B010895809197
:105040001A01681720F4861B80931A0108951092A4
:105050001A01089580911901681720F4861B809326
:10506000190108951092190108950F931F93873223
:1050700008F04DC08E3108F093C0803109F47DC036
:1050800008F5873009F46BC068F4863009F0A3C0D6
:1050900080917A03817F8E7F80937A0381E0809371
:1050A00087039AC08B3009F48FC08E3009F093C00B
:1050B00080917A0382FB222720F991E0922790FBCE
:1050C00082F964C0863109F47FC088F4813109F027
:1050D00082C00E94721C8091B20387FB222720F9B4
:1050E00091E0922790FB87F98093B2036DC08931DC
:1050F00009F46AC08B3109F06EC080917A0381FB9C
:10510000222720F991E0922790FB81F93FC0883354
:1051100009F45AC050F4893209F458C0853309F4AF
:1051200055C0873209F452C056C0833409F44EC0CA
:1051300028F48A3308F44FC0895333C0883409F007
:105140004AC00E94721C0FEF13ED20E30150104083
:105150002040E1F700C000000E94032535C0809187
:105160007A03982F9095917090FB80F980937A0341
:1051700091112AC0897F877F10C080917A0383FBB9
:10518000222720F991E0922790FB83F980937A03FC
:105190009923D1F080917A03816080937A0314C0BF
:1051A0008D5141E050E060E070E08A019B0104C055
:1051B000000F111F221F331F8A95D2F7C901B801B2
:1051C0000E9472200E94721C81E006C061E070E0C3
:1051D00080E090E0F5CF80E01F910F91089580E08E
:1051E000089580E008958E518A3030F4E82FF0E081
:1051F000E65FFD4F8081089580E00895CF93C82F2A
:1052000080918703813079F018F08230E9F185C010
:10521000E0911701F09118018081813169F08232AB
:1052200009F07DC009C0E0911701F091180180815B
:10523000813111F0823261F48C2F0E94EF288111AC
:1052400004C08C2F0E9435281DC081E090E01AC058
:105250008C2F0E94F128811114C0C43179F048F4D8
:10526000CB3079F0C03109F05EC082E080938703D3
:1052700008C0C93219F0C83321F055C01092870315
:1052800052C081E0817051C0C93279F108F5C43152
:1052900061F1A0F4C73009F044C010927E0384E1AC
:1052A00080931D01C0931C018CE380931B0188E057
:1052B00080931A0188E28093190133C082EE8C0F2B
:1052C000863078F58C2F0E94F3288093860329C0BE
:1052D000CE34E9F020F4CB3421F56AE013C0C135B7
:1052E00079F0C235F1F461E00DC080918603882326
:1052F00019F01092860315C081E08093870315C0D2
:1053000061E006C0809186030E946F270AC06AE0B0
:10531000809186030E94E52704C01092870380E0F5
:1053200004C081E002C080E0ADCFCF9108958091AC
:10533000A80308950F931F93CF93DF9300D01F927C
:10534000CDB7DEB78C010E94102C823011F0843072
:1053500019F593E099831B830A839093E9008FEFFB
:105360009091E800815095FD06C095ED9A95F1F772
:1053700000008111F5CF8091E80085FF0DC040E06D
:1053800050E063E070E0CE0101960E942D2C8091E8
:10539000E8008E778093E8000F900F900F90DF91D8
:1053A000CF911F910F910895CF93DF9300D01F925B
:1053B000CDB7DEB72091B803243031F522E0298340
:1053C000805891099B838A8383E08093E9008FEF63
:1053D0009091E800815095FD06C095ED9A95F1F702
:1053E00000008111F5CF8091E80085FF0DC040E0FD
:1053F00050E063E070E0CE0101960E942D2C809178
:10540000E8008E778093E8000F900F900F90DF9167
:10541000CF910895CF93DF93EC010E94102C82303E
:1054200011F08430F9F482E08093E9009FEF8091DD
:10543000E800915085FD06C085ED8A95F1F70000E2
:105440009111F5CF8091E80085FF0CC040E050E05D
:1054500065E070E0CE010E942D2C8091E8008E77EF
:105460008093E800DF91CF910895CF93DF93EC0113
:105470000E94102C823019F0843009F047C08091CE
:1054800028018823E1F08091B20387FF18C084E0EF
:105490008093E9008FEF9091E800815095FD06C060
:1054A00095E19A95F1F700008111F5CF8091E80020
:1054B00085FF2CC040E050E060E270E017C081E062
:1054C0008093E9008FEF9091E800815095FD06C030
:1054D00095ED9A95F1F700008111F5CF8091E800E4
:1054E00085FF14C040E050E068E070E0CE010E940B
:1054F0002D2C8091E8008E778093E80080E2FE01F9
:10550000A8E8B3E001900D928A95E1F7DF91CF9181
:1055100008958091B703811109C00E94C22D0E9495
:105520001F2E8091E20084608093E2000895109223
:10553000B7030895089508950C946D2442E061EC3A
:1055400081E00E943C2D42E061EC82E00E943C2D13
:1055500042E061EC83E00E943C2D42E261EC84E099
:105560000C943C2D8091BA03833009F455C030F47B
:10557000813071F0823009F48EC008958A3009F4C8
:105580007AC08B3009F460C0893009F09CC020C01B
:105590008091B903813A09F096C08091E800877F35
:1055A0008093E8008091BD039091BE03892B21F484
:1055B00060E288E893E003C060E080E090E070E0A3
:1055C0000E94782C8091E8008B778093E800089502
:1055D0008091B903813209F076C08091BD0390912A
:1055E000BE03009719F0039709F06DC08091E800A1
:1055F000877F8093E8008091E80082FD05C080915C
:10560000B8038111F8CF5FC08091F1008093A803A7
:105610008091E8008B7753C08091B903813A09F0FB
:1056200052C08091BD039091BE03892B09F04BC0FD
:105630008091E800877F8093E8008091E80080FFF8
:10564000FCCF8091280136C08091B9038132D9F511
:105650008091BD039091BE03892BA9F58091E8004C
:10566000877F8093E8000E94712D8091BB03809317
:1056700028010C94721C8091B903813221F580912C
:10568000E800877F8093E8000E94712D8091BC0321
:105690008093A90308958091B903813AA1F4809180
:1056A000E800877F8093E8008091E80080FFFCCFCE
:1056B0008091A9038093F1008091E8008E77809318
:1056C000E8000C94712D089584B7877F84BF0FB6CE
:1056D000F894A89580916000886180936000109292
:1056E00060000FBE80E880936100109261000E940C
:1056F000A3160E94C22D0E941F2E8091E20084609A
:105700008093E20078940E94AE300E94A7168EE14A
:1057100091E00E944F168091B803853069F40E9491
:1057200025248091B6038823B1F30E945624882350
:1057300091F30E94172CEFCF0E94B316ECCF0C947C
:10574000A12B292F332723303105C9F064F42130F0
:10575000310581F02230310509F049C08DE690E035
:105760002CE93AE048C02132310521F122323105DD
:1057700071F13DC082E190E029E03BE03CC0992717
:105780008130910571F02CF4892B89F5E8E9FAE074
:105790000DC08230910541F0039749F5E2E6FAE049
:1057A00005C0E0E8FAE002C0E8E6FAE0849190E0A3
:1057B0009F0121C064307105D0F4660F771FFB0193
:1057C000E05EFD4F2081318189E090E014C06430BB
:1057D000710568F4FB01EE0FFF1FE85EFD4F2081AD
:1057E0003181FB01EC5EFD4F808190E004C080E0E0
:1057F00090E020E030E0FA0131832083089508959D
:10580000CF93C82F0E94FF2BC093AA03CF91089576
:105810008091B803843011F081E0089582E008950A
:105820008091AA03811102C00C94082C089580E194
:1058300089BD82E189BD09B400FEFDCF8091D80009
:105840008F7D8093D8008091E00082608093E0009B
:105850008091E00081FDFCCF0895CF92DF92EF921E
:10586000FF920F931F93CF93DF93EC018B016A019B
:105870000E94902D811133C0C114D10439F0F6017A
:1058800080819181081B190BC80FD91FE12CF12CC5
:105890000115110519F18091E80085FD16C0809170
:1058A000E8008E778093E800C114D10449F0F60136
:1058B00080819181E80EF91EF182E08285E00FC0BF
:1058C0000E94902D882321F30AC089918093F100D2
:1058D00001501109FFEFEF1AFF0ADACF80E0DF91E4
:1058E000CF911F910F91FF90EF90DF90CF9008958F
:1058F0002091BF033091C0032617370748F0611588
:10590000710539F42091E8002E772093E80001C05A
:10591000B90140E061157105A9F12091B803222376
:1059200009F443C0253009F442C02091E80023FD6A
:1059300040C02091E80022FD32C02091E80020FF05
:10594000E9CF4091F3002091F20030E0342BFC01CC
:10595000CF016115710559F02830310540F481916E
:105960008093F100615071092F5F3F4FF1CF41E00B
:105970002830310509F040E02091E8002E7720938F
:10598000E800C8CF4111C9CF0AC08091B80388236D
:1059900061F0853061F08091E80083FD0AC080915C
:1059A000E80082FFF2CF80E0089582E0089583E06E
:1059B000089581E008952091BF033091C003261718
:1059C000370748F06115710539F42091E8002E770A
:1059D0002093E80001C0B901FC0120E061157105C8
:1059E00091F18091B803882309F440C0853009F40F
:1059F0003FC08091E80083FD3DC08091E80082FDBA
:105A00002FC08091E80080FFE9CF2091F3008091C2
:105A1000F20090E0922B6115710559F088309105E4
:105A200040F424912093F100319661507109019660
:105A3000F2CF21E0089709F020E08091E8008E770E
:105A40008093E800CBCF2111CCCF0AC08091B8035E
:105A5000882361F0853061F08091E80083FD0AC001
:105A60008091E80082FFF2CF80E0089582E00895FF
:105A700083E0089581E00895982F973058F590932A
:105A8000E900981739F07091EC002091ED005091E9
:105A9000F00003C0242F762F50E021FF19C0309171
:105AA000EB003E7F3093EB003091ED003D7F309373
:105AB000ED003091EB0031603093EB007093EC001F
:105AC0002093ED005093F0002091EE0027FF07C0D7
:105AD0009F5FD3CF8F708093E90081E0089580E0CD
